:02000002D0002C
:1040000000400D0020990D00000006000C00050185
:0840100004017E050000000020
:04401800AC8F0D005C
:1040200009480A49884208B505D0094A824202D0A7
:10403000121A04F03CFE0748074A0021121A04F045
:104040005CFE014808BD00BFFCE1032060980D0044
:1040500094E2032094E20320F0E7032070B503F01C
:10406000E7FF074C074BE41AA40800251E46A542AB
:1040700004D056F8253098470135F8E770BD00BFE9
:1040800060980D0024980D0000F0C4B908B500F048
:1040900019F9BDE8084003F099BF00F053BF00F0E4
:1040A00059BF00F057BF000008B5034A00210C209B
:1040B00000F09CFEFEE700BF1D4B0D000078B0FA3B
:1040C00080F0400970470123037070477047006A11
:1040D0000368DB68184700000A4B10B5044603600C
:1040E00002F0ECFB214602F0D9FD03F0EDFE03F0F7
:1040F000DDFE2046044B40F8043B02F0D5FC204690
:1041000010BD00BFE08F0D00C88F0D0010B5044634
:10411000FFF7E2FF2046242104F00FF8204610BDEF
:104120000EB400B58CB00DAA202352F8041B0392E4
:104130008DE8060004930168002304AA1E2005935D
:1041400000F064FE0CB05DF804EB03B070470000B3
:10415000F7B5374A12689A4244D10378354DDB07E8
:104160002E784BBFB0F801304378ADF80630ADF88B
:104170000630002E55D1BDF806402F492F48304F4C
:104180002246FFF7CDFF204604F08CFA26A3D3E9A0
:10419000002304F017FC04F0FDFC42F21073984277
:1041A000386002D92246274918E0012331462648C3
:1041B0002B7003F03CFC4FF47A7324493A681F4893
:1041C000B2FBF3F2FFF7ACFF386800F0E7FE5A21CC
:1041D0001D4803F02CFC1E492E7022461748FFF79D
:1041E0009FFF1EE001291CD11A4A1B4C1268934202
:1041F00002D1037823700CE0184A1268934202D16E
:104200000378637005E0164A1268934204BF03788E
:10421000A370A2786178207803B0BDE8F04003F085
:10422000D3BB03B0F0BD00BF99BB96900F7AC63FD9
:10423000FCE1032040E30320F08F0D00D0E30320D6
:10424000E0E2032006900D0074E3032030900D009F
:104250003C900D0004E20320BCE203201CE203209A
:1042600018E203200000000010B5134B1B78DBB9E7
:1042700004F074FD114CB0F1804F206807DB04F0AE
:1042800023FA0BA3D3E9002304F0C0F806E004F0FE
:104290001BFA07A3D3E9002304F0B6F804F09AFC54
:1042A000206094ED000A10BD9FED050A10BD00BF0F
:1042B0009A9999999999B93FE4E203200CE2032075
:1042C0000000000030B5224C85B000F02FFC2368C0
:1042D000C01AB0F5FA6F39D300F028FC206001F065
:1042E0006FF901F0F7F988B304258DF80850FFF74E
:1042F000BBFFDFED187A184C20EE270A0622BCEE31
:10430000C00A02A910EE103A43F07E4301930198CF
:10431000CDF80900002311488DF80D2001F09EF81A
:104320000023012221460E4801F098F80D490E485D
:104330000B6801330B602A46002301F08FF82378C5
:10434000013BDBB2092B98BF6423237005B030BD5D
:10435000A0E203200000C84210E20320A4E20320F0
:10436000B4E20320C0E2032004E3032070B5046834
:1043700043681426054606FB0346A64204D02046A1
:1043800003F013FC1434F8E7286800F0E3FD284636
:1043900070BDF0B50E468FB000210446016041604B
:1043A00009AD194604A8174600F075FF1499284670
:1043B00000F071FF169B0293159B01932046009518
:1043C00004AB3A46314601F0A7FC20460FB0F0BDE1
:1043D00030B589B0044603A8154600F067FE03A86F
:1043E00000F0ACFE48B903A800F0C5FE08AA0223FD
:1043F00022F8160D0321009506E003A800F0BDFE8B
:104400000095102302460721204600F067FF09B0FF
:1044100030BD0000F0B591B003F056FD4FF41651D9
:1044200003F040FD002000F089FB0025044640F623
:10443000B7360027002000F081FB001B61EB05016F
:104440008F4208BF864207D303F03EFD03F031FDE3
:1044500010B900F017FDEDE703F036FD002403F07E
:1044600028FDB42301934FF408724FF41663102112
:104470000094484803F03EFB464803F0FDFA4649E5
:1044800002464648FFF74CFE012003F08DFA444BEC
:104490001C705C709C7001F093F8424A014607A8BA
:1044A00001F0ECFC07A801F047F901F089F83E4A59
:1044B000014607A801F0E2FC07A801F03DF901F070
:1044C0007FF83A4A014607A801F0D8FC07A801F096
:1044D00033F901F075F8364A014607A801F0CEFC21
:1044E00007A801F029F9234601223249304800F09B
:1044F000B5FF01F065F8304A014607A801F0BEFC9F
:1045000007A801F019F901F05BF82C4A014607A849
:1045100001F0B4FC07A801F00FF901F051F8284AA6
:10452000014607A801F0AAFC07A801F005F907A8B1
:1045300000F01BFF234907A800F031FF224902A821
:1045400000F0B4FD224602A907A8FFF741FF1F496A
:1045500002A800F0ABFD224602A907A8FFF738FF2A
:104560001B4902A800F0A2FD224602A907A8FFF7F6
:104570002FFF184902A800F099FD224602A907A8BA
:10458000FFF726FF01F01CF8224607A901F085F885
:1045900011B0F0BD74E3032052900D00D0E303206E
:1045A000BCE2032004E3032098E20320A4E20320FA
:1045B000B4E2032010E20320D8E2032044E3032006
:1045C000E8E2032066900D004CE30320C4E20320E0
:1045D00060E30320F0E203208842F8B506460C466B
:1045E000154616D9904215D2A2F114056C1AA1F104
:1045F00014070444AF421CD02CB12946204603F0D6
:10460000C4FA2B7C2374284603F0CFFA143D143CE3
:10461000F0E70ED0AC420CD02EB12146304603F06C
:10462000B4FA237C3374204603F0BFFA14341436F2
:10463000F0E7F8BD2DE9F04100230360436083609B
:104640004E689E4204460F4624DD4FF0140808FBD6
:1046500006F000F077FC0546E0B194E8060008FBA0
:104660000212FFF7B9FF206800F074FC2560A66015
:104670003E687B6808FB0368464509D02DB131468A
:10468000284603F0FBFA337C2B7414361435F3E719
:104690007B6863602046BDE8F08100002DE9F04FA3
:1046A00099B000F053FA9A4B9A4FDFF8D092DFF8A6
:1046B000D0B2DFF8D0A200244FF6FF729A801C70AF
:1046C0005C80032000F0BAFB04940594069403F088
:1046D000FBFB04A9804609A8FFF7ACFF3D4609A9EA
:1046E0000EA8FFF7A7FF8C4B45F8043B13AE0EA9AD
:1046F0003046FFF79FFF32461E21284602F031FC6C
:104700003046FFF733FE0EA8FFF730FE834B3B60C9
:10471000C7F8208009A8FFF729FE814B3B6003F012
:10472000D3FB4FF4165103F0BDFB02F0C7F8394636
:104730007C4DDFF8548202F0A7FB04A8FFF716FEB9
:104740003846794F79492A4603F0F2FC78493846D1
:1047500003F072FA2A467749384603F0E9FC764FAF
:10476000764803F0B3F9D9F80010754800F093FDCE
:1047700041F60901384600F0CAFC41F60F015846DF
:1047800000F0C5FCDAF800106E4800F084FD42F637
:104790001C2104A800F0BBFC394609A800F086FCE7
:1047A000C8F80040C8F8044004A90EA8664F00F0FD
:1047B0007DFC09A9304600F079FC0EAB404602941E
:1047C000019400961222614901F0A6FA2A46394660
:1047D000404603F0ADFCDFF8B48142F6192104A88D
:1047E00000F095FC594609A800F060FCC8F80040AC
:1047F000C8F8044004A90EA800F058FC09A93046E6
:1048000000F054FC0EAB4046029401940096122234
:104810004F49DFF87CB101F07FFA2A46394640461D
:1048200003F086FC4B4BDFF86C811B680293CDF8DC
:104830000480D9F800200092474904225846FFF727
:10484000A8FD2A463946584603F072FC434BDFF870
:1048500048B11B680293CDF80480D9F8002000927B
:104860003F4904225846FFF794FD2A4639465846E8
:1048700003F05EFC3B4BDFF824B11B680293CDF8DC
:104880000480D9F8002000923749DFF814910422FF
:104890005846FFF77EFD2A463946584603F048FC45
:1048A000324BDAF800201B680293CDF804800092A6
:1048B0002F49DFF8F08004224846FFF76AFD2A46B8
:1048C0003946484603F034FC2A4B1E49D3F8009081
:1048D00009A800F0EBFB4946C8F80040C8F80440BE
:1048E0000EA800F0D8FC09A9304600F0DFFB0EABA3
:1048F000404602940194009612221F4901F00CFADE
:104900002A463946404603F013FC19B0BDE8F08F43
:10491000ACE203201CE30320C88F0D005C950D0062
:10492000E08F0D0094E203200CE30320D9400D003A
:1049300018950D00AB7B0D0060E3032074E30320AA
:10494000C4E203204CE3032039570D006C900D00A6
:1049500071900D0004E2032075900D001CE203200D
:1049600079900D0018E203207F900D00FCE10320F8
:1049700084900D0008E203208B900D0000E20320DC
:10498000F0E2032014E20320A4E20320B4E20320B7
:10499000D8E2032051410D0044E30320E8E2032064
:1049A00098E2032004E3032008B5024B1B689B68D0
:1049B000019308BD7802030008B5024B1B681B6D0C
:1049C000019308BD7802030008B5024B1B689B6D7C
:1049D000019308BD7802030008B5024B1B681B6EEB
:1049E000019308BD7802030008B5034B1B68D3F898
:1049F0009830019308BD00007802030008B5034B0E
:104A00001B68D3F8A830019308BD000078020300AA
:104A100008B5034B1B68D3F8B430019308BD000000
:104A20007802030008B5034B1B68D3F8D830019314
:104A300008BD00007802030008B5034B1B68D3F8DB
:104A4000DC30019308BD00007802030008B5034B79
:104A50001B68D3F8EC30019308BD00007802030016
:104A600008B5034B1B68D3F8F030019308BD000074
:104A70007802030008B5034B1B68D3F8003101939B
:104A800008BD00007802030008B5034B1B68D3F88B
:104A90000431019308BD00007802030008B5024B01
:104AA0001B689B68019308BD4802030008B5024BD0
:104AB0001B681B69019308BD4802030008B5024B3F
:104AC0001B685B69019308BD4802030008B5024BEF
:104AD0001B681B6B019308BD4802030008B5024B1D
:104AE0001B685B6C019308BD4802030008B5024BCC
:104AF0001B68DB6C019308BD4802030008B5024B3C
:104B00001B685B6D019308BD4802030008B5024BAA
:104B10001B685B68019308BD1802030008B5024BCF
:104B20001B68DB68019308BD1802030008B5024B3F
:104B30001B685B69019308BD1802030008B5024BAE
:104B40001B68DB6D019308BD1802030008B5024B1A
:104B50001B681B68019308BD2C02030008B5024BBB
:104B60001B685B68019308BD2C02030008B5024B6B
:104B70001B681B6A019308BD2802030008B5024B9D
:104B80001B685B6A019308BD2802030008B5024B4D
:104B90001B689B6A019308BD2802030008B5024BFD
:104BA0001B68DB6A019308BD2802030008B5024BAD
:104BB0001B681B6B019308BD2802030008B5024B5C
:104BC0001B685B6B019308BD2802030008B5024B0C
:104BD0001B681B6C019308BD2802030008B5024B3B
:104BE0001B685B69019308BD6402030008B5024BB2
:104BF0001B689B68019308BD6802030008B5024B5F
:104C00001B68DB68019308BD6802030008B5024B0E
:104C10001B681B69019308BD2402030008B5024B01
:104C20001B685B69019308BD2402030008B5024BB1
:104C30001B689B69019308BD2402030008B5024B61
:104C40001B68DB69019308BD2402030008B5024B11
:104C50001B68DB69019308BD3002030008B5024BF5
:104C60001B681B6A019308BD3002030008B5024BA4
:104C70001B681B68019308BD3C02030008B5024B8A
:104C80001B689B68019308BD3C02030008B5024BFA
:104C90001B68DB68019308BD3C02030008B5024BAA
:104CA0001B681B69019308BD3C02030008B5024B59
:104CB0001B685B69019308BD3C02030008B5024B09
:104CC0001B689B69019308BD3C02030008B5024BB9
:104CD0001B68DB69019308BD3C02030008B5024B69
:104CE0001B681B6A019308BD3C02030008B5024B18
:104CF0001B689B6A019308BD3C02030008B5024B88
:104D00001B68DB6A019308BD3C02030008B5024B37
:104D10001B681B68019308BD4C02030008B5024BD9
:104D20001B685B68019308BD4C02030008B5024B89
:104D30001B689B68019308BD4C02030008B5024B39
:104D40001B681B69019308BD4C02030008B5024BA8
:104D50001B685B69019308BD4C02030008B5024B58
:104D60001B689B69019308BD4C02030008B5024B08
:104D70001B68DB69019308BD4C02030008B5024BB8
:104D80001B681B6A019308BD4C02030008B5024B67
:104D90001B689B6A019308BD4C02030008B5024BD7
:104DA0001B685B68019308BD6002030008B5024BF5
:104DB0001B689B68019308BD6002030008B5024BA5
:104DC0001B68DB68019308BD6002030008B5024B55
:104DD0001B689B69019308BD6002030008B5024B84
:104DE0001B68DB69019308BD6002030008B5024B34
:104DF0001B685B6B019308BD6002030008B5024BA2
:104E00001B681B6D019308BD6002030008B5024BCF
:104E10001B685B6D019308BD6002030008B5024B7F
:104E20001B68DB6E019308BD6002030008B5024BEE
:104E30001B681B6F019308BD6002030008B5024B9D
:104E40001B685B68019308BD2002030008B5024B94
:104E50001B685B69019308BD2002030008B5034B82
:104E60001B68D3F88830019308BD000020020300BE
:104E700008B5034B1B68D3F89430019308BD0000BC
:104E80002002030008B5024B1B689B68019308BD14
:104E90004402030008B5024B1B68DB6B019308BD9D
:104EA0004402030008B5024B1B685B68019308BD10
:104EB0004002030008B5024B1B689B68019308BDC4
:104EC0004002030008B5024B1B68DB68019308BD74
:104ED0004002030008B5024B1B681B69019308BD23
:104EE0004002030008B5024B1B685B69019308BDD3
:104EF0004002030008B5024B1B689B69019308BD83
:104F00004002030008B5024B1B68DB69019308BD32
:104F10004002030008B5024B1B681B6A019308BDE1
:104F20004002030008B5024B1B681B6B019308BDD0
:104F30004002030008B5024B1B685B6B019308BD80
:104F40004002030008B5024B1B681B68019308BDB3
:104F50001C02030008B5024B1B685B68019308BD87
:104F60001C02030008B5024B1B689B68019308BD37
:104F70001C02030008B5024B1B685B6A019308BD65
:104F80001C0203008A4230B507D0039D441AED1A73
:104F90006C43521A94FBF2F4E01830BD0021FFF785
:104FA00055BF70470020704770470020704770471A
:104FB0000020704710B51421044603F0BEF82046C7
:104FC00010BD10B51421044603F0B7F8204610BDFB
:104FD00010B51421044603F0B0F8204610BDFFF7C9
:104FE0005EB8FFF75CB8FFF75AB8000008B50A20B2
:104FF000024A0021FFF7FAFE08BD00BF1D4B0D005D
:1050000010B5036804469B689847A368013BA360FA
:105010002BB923682046DB68BDE81040184710BD57
:10502000A0F13003DAB2092A01D818467047A0F17E
:105030006103052B01D857387047A0F14103052BB8
:1050400094BF37384FF0FF307047000010B5002391
:105050000370044B04461868FFF748FD01232370D2
:10506000204610BD90E3032010B5037804461BB121
:10507000024B1868FFF742FD204610BD90E3032065
:1050800008B582798B799A4206D1062203F000FE98
:10509000B0FA80F0400908BD002008BD10B5142208
:1050A0000446002103F029FE204610BD10B503463A
:1050B00001F1140251F8044B43F8044B9142F9D129
:1050C00010BD70B50C4605461646FFF7E7FF2CB934
:1050D00010222146284603F010FE16E0012E09D1C9
:1050E0002B4604F1100254F8041B43F8041B9442AD
:1050F000F9D108E06A1E0F23E15C02F8011F013BB1
:10510000DBB2FF2BF8D101232B74284670BD38B5D4
:1051100004460D46FFF7C2FF002325802374204676
:1051200038BD38B5044615461A46FFF7CAFF257341
:1051300001232D0A65732374204638BD037C13F0C8
:10514000FD0F14BF0120002070471FB50446FFF774
:10515000F5FF08B9208809E010220021684603F015
:10516000CCFD10226946204603F092FD003018BFA6
:10517000012004B010BD00887047704710B5034689
:1051800001F1140251F8044B43F8044B9142F9D158
:1051900010BD10B551B1034601F1100251F8044B96
:1051A00043F8044B9142F9D10123037410BD10B5AB
:1051B0000446FFF7C3FF28B9088823881B1A584202
:1051C000584110BD1022204603F062FDB0FA80F075
:1051D000400910BDF7B505460E4619B9102203F077
:1051E0008CFD51E02421304603F031FE042802D02A
:1051F000002710243BE03078FFF712FF041E47DB46
:105200007078FFF70DFF002842DB40EA04108DF8AC
:105210000400B078FFF704FF041E39DBF078FFF7D5
:10522000FFFE002834DB40EA04109DF80430C0B2D1
:1052300040EA03202880002327E02CB3F05DFFF72D
:10524000EFFE030612D4013C00012855242130460C
:1052500003F0FDFD0137874208D2F05DFFF7E0FE65
:1052600040B20028A2BF2B5D1843285501372421E6
:10527000304603F0ECFD8742DFD32C440023A542E7
:1052800002D004F8013DFAE701232B7403B0F0BD0E
:1052900000232B80CFE738B504460D46FFF7FEFE0E
:1052A00020462946FFF796FF204638BDF0B58BB162
:1052B0000024E51C8D420FD8661C055D875D974272
:1052C00005D12E44B14207D31C60681CF0BD0135E6
:1052D0002C44EEE71846F0BD0020F0BD2DE9F74361
:1052E00004460E461D461746002A3AD00A4601AB30
:1052F000016AFFF7DBFF9DF82830226A03BBF8B193
:10530000961C2E44361A1F2E2BD8DDF8048008F187
:105310000209C8EB0202121A00EB080105EB0900B2
:1053200092B22144204403F0CDFC6B1C04F80830F9
:105330002A46394604EB090003F0B9FC266210E066
:10534000901C2B181F2B0CD86B1CA35422442062DA
:105350003946567020442A4603F0A9FC226A2A44A2
:105360002262206A03B0BDE8F0831FB504460346FD
:1053700000F11F02002003F8010B93424FF00001DF
:10538000F9D104AA062302F8013D0123216200910C
:1053900020461946FFF7A2FF204604B010BD37B5DE
:1053A0000C4605461421204603F051FD00230093CE
:1053B0002246034609212846FFF790FF03B030BD7F
:1053C00073B50A460E4601AB016A0446FFF76EFF4D
:1053D000054678B10198226A2918121A521B2144F5
:1053E000204403F064FC236A5D1B2562314620469D
:1053F000FFF7E6FF02B070BD38B500254FF6FF732A
:10540000044643800E22294605700571063003F0DC
:1054100074FC04F11400FFF741FE04F12800FFF7CB
:105420003DFE044904F13C0002F006FCE5642565FC
:10543000204638BD18950D0010B58369C26903EB8D
:10544000C2029342184606D0046824888C4203F1B5
:105450000803F6D110BD002010BD00002DE9F34176
:1054600080461F460E4669B362B3F42A056828BF1A
:10547000F42214462A78A2B12B79980707D5002385
:105480002246A889FFF7C4FA002802DA43E06FF049
:105490007700D8F800502B79DA0618D5012F23D1E0
:1054A00015E068884FF6FF7398420DD02B795907A5
:1054B00023D5012F21D0A989009223463246FFF738
:1054C000BBFA28E0154826E06FF0D10023E09A06E9
:1054D00021D5022F1FD0A88900232246314602B0D1
:1054E000BDE8F041FFF7D0BAA88900232246314633
:1054F00002B0BDE8F041FFF7BDBA1B0701D5022F8E
:1055000002D16FF0770006E00023A98900933246AC
:105510002346FFF787FA02B0BDE8F081F2FEFFFFF5
:1055200010B50A6852F8023F03605368436010BD2B
:105530001FB502680B6812881B889A420C460CD172
:1055400001466846FFF7ECFF214602A8FFF7E8FF97
:1055500002A96846FFF794FD00B9002004B010BD11
:1055600010B504463420FEF798FD014668B10023CB
:10557000036043608360C360036143618361C3610F
:10558000036243628362C3620363216019B90A4AFA
:105590000A20FFF72BFC0020FFF706FA20B1064A8D
:1055A00000210A20FFF722FC002221680348FFF7B0
:1055B00057FA204610BD00BF1D4B0D00C5590D0008
:1055C00010B50A4C2368DB070ED42046FEF776FDA3
:1055D00050B10748FFF7C4FF2046FEF774FD054AA7
:1055E0000549034802F0A4FD014810BD88E30320EB
:1055F00084E3032094E20320AD570D0070B50368E7
:10560000093B012B8AB004460E4619D8FFF7D8FF94
:10561000A1880068FFF710FF024658B920230293C3
:10562000084B0390009302AA034607493220FFF774
:10563000E5FB05E0F56C1DB1336DE1682069A84715
:105640000AB070BD46920D00FC910D00084609B9E4
:105650000A4601E0096A0022FFF7AEB910B50C4610
:1056600011B90A46084606E001212046FFF7A8FEC8
:10567000216A00222046BDE81040FFF7A5B913B506
:1056800001A8FFF7E3FC0020FFF7A6F9044601A8F4
:10569000FFF7EAFC204602B010BD73B505460C4684
:1056A00001A81646FFF7D2FC21462846FFF7CEFF99
:1056B000002808DB31462846FFF7D0FF002802DB30
:1056C0002846FFF7DCFF044601A8FFF7CDFC204683
:1056D00002B070BD0368D8690028D4BF0020012043
:1056E00070470B68036013B15A6801325A60704703
:1056F00010B551F8043B044640F8043BFFF7F1FFB6
:1057000023680BB9FFF772FC204610BD10B551F8A5
:10571000043B044640F8043BFFF7E3FF204610BD7E
:1057200010B50446006828B14368013B43600BB9DB
:10573000FFF766FC204610BD10B504460430FFF7A5
:10574000EFFF204610BD70B504684368054604EBC2
:10575000C306A64204D0201DFFF7E2FF0834F8E795
:105760002868FFF7F7FB284670BD70B504684368EA
:10577000054604EBC306A64204D0201DFFF7D0FF68
:105780000834F8E72868FFF7E5FB284670BD10B538
:10579000046904F11800FFF7E8FF04F10C00FFF7BB
:1057A000D2FF2046BDE81040FEF779BCF8B504688A
:1057B0000746C4B1A569E36905EBC306AE4204D050
:1057C000281DFFF7ADFF0835F8E7A069FFF7C2FB1A
:1057D00004F10C00FFF7C9FF2046FFF7B4FF3421A6
:1057E000204602F0AAFC3846F8BD000073B500253B
:1057F0000560456006462420FEF74FFC044678B15C
:1058000003464FF6FF7223F8022BC0F802505D608A
:105810008572C572C560056145618561C5610562B6
:10582000002314200193FEF738FC034628B101221F
:1058300042608260084A0260046102A8726840F80F
:10584000042D73603460FFF76BFF33680BB9FFF70B
:10585000CDFB304602B070BDD8910D0038B50C6854
:1058600003689C4205460CD014B163680133636041
:10587000286828B14368013B43600BB9FFF7C0FBC0
:105880002C60284638BD884270B515461AD990421A
:1058900019D2A1F10806511A0439151F44182B1FFB
:1058A0009E4225D0042C07D055F8043C44F8043C13
:1058B00029462046FFF715FF2846FFF731FF083D30
:1058C000083CECE714D00C1D061D231F9D420FD091
:1058D000042E07D054F8043C46F8043C21463046D8
:1058E000FFF7FFFE2046FFF71BFF08340836ECE702
:1058F00070BD2DE9F041046843680546884604EB15
:10590000C307A74218D041462046FFF711FE0646BE
:1059100008B90834F5E78CB1201DFFF701FF2B68AB
:105920006A6804F1080103EBC2022046FFF7ABFFEF
:105930006B68013B6B6002E0002600E026463046C3
:10594000BDE8F081F7B5044651F8043B4768009381
:1059500001A8FFF7C6FE6668A3689E4214DB013605
:10596000002E0BDDF000FFF7EDFA054618B394E8C2
:10597000060001EBC202FFF786FF00E00025206869
:10598000FFF7E8FA2560A6602668626806EBC7059F
:1059900006EBC202294605F10800FFF774FF35B196
:1059A000009B46F8373001A9281DFFF79AFE63686F
:1059B00001336360012501A8FFF7B2FE284603B05A
:1059C000F0BD00002DE9F04104468EB003A80D465D
:1059D000FFF73CFB2368032B02D0042B42D087E067
:1059E00004A8FFF703FF049B22891A8062680499C8
:1059F00052F8083FC1F802305368C1F8063007A8D2
:105A0000049B069305A9FFF76CFE06A905F1180093
:105A1000FFF798FF044607A8FFF782FE20230693AE
:105A200074B9364B009306AA2346354907943220B1
:105A3000FFF7E4F9049B21461888FEF7D5FF0DE037
:105A4000304A0092002306AA2D4907930120FFF750
:105A5000D5F96B6A13B1E96A04A8984705A8FFF75E
:105A60005FFE45E021892846FFF7E6FC074600284F
:105A70003ED00468A369E1694FF6FF72228003EB10
:105A8000C101994203D053F8080B4280F9E7E66858
:105A9000236906EBC308B04504D0301DFFF740FE74
:105AA0000836F8E700232361A669E36906EBC3081B
:105AB000B04504D0301DFFF733FE0836F8E7002369
:105AC000E361A372E372AB6A13B1296B384698475E
:105AD00020230D4A069300920023094907930120D1
:105AE00006AAFFF78BF9394605F11800FFF701FF09
:105AF00003A8FFF7B9FA0EB0BDE8F0815E920D0081
:105B0000FC910D0084920D00A1920D008842F8B521
:105B100006460C46154614D9904213D2A2F1080548
:105B20006C1AA1F108070444AF4218D01CB12946F1
:105B30002046FFF7EBFD281DFFF7F2FD083D083C6E
:105B4000F2E70CD0AC420AD01EB121463046FFF736
:105B5000DDFD201DFFF7E4FD08340836F2E7F8BD4F
:105B600070B50E1E05460BDDF000FFF7EBF904469D
:105B700070B195E8060001EBC202FFF7C7FF00E035
:105B800000242868FFF7E6F92C60AE60012070BDA4
:105B900070BD73B5044645686846FFF7B7FD616898
:105BA000A368994205DB01312046FFF7D9FF06467D
:105BB00098B12368626803EBC50503EBC20229466E
:105BC00005F10800FFF7A2FF1DB169462846FFF75F
:105BD0009DFD636801336360012601A8FFF7A0FD06
:105BE000304602B070BD8842F8B506460C461546F0
:105BF00014D9904213D2A2F108056C1AA1F108073A
:105C00000444AF4218D01CB129462046FFF770FD6E
:105C1000281DFFF785FD083D083CF2E70CD0AC429B
:105C20000AD01EB121463046FFF762FD201DFFF766
:105C300077FD08340836F2E7F8BD70B50E1E05464C
:105C40000BDDF000FFF77EF9044670B195E8060021
:105C500001EBC202FFF7C7FF00E000242868FFF74E
:105C600079F92C60AE60012070BD70BD73B504463B
:105C700045686846FFF73CFD6168A368994205DB0B
:105C800001312046FFF7D9FF064698B123686268C4
:105C900003EBC50503EBC202294605F10800FFF737
:105CA000A2FF1DB169462846FFF722FD6368013354
:105CB0006360012601A8FFF733FD304602B070BDD6
:105CC00010B50446406808B1FEF7E9F9204610BD5A
:105CD00007B503690C308DE8090003F13C0001F0C1
:105CE00064FF6846FFF7ECFF03B05DF804FB0000BB
:105CF00038B500230446036014200D46FEF7CDF9A5
:105D000028B1012343608360024B0360056120607A
:105D1000204638BDA0910D002DE9F04188B0054620
:105D20001E46542000230F46904604930593FEF729
:105D3000B4F9CDF818D004460790B0B1FFF75CFB7A
:105D4000394604F13C0084F8048001F0A2FF0F9B67
:105D5000E3643146109B236504F11400FFF70EFA4B
:105D60000E9904F12800FFF709FA2146002601AB3D
:105D700002AA03A80796FFF7BBFF039B059A0392AD
:105D800003A805930494FFF7CBFC06A8FFF798FF40
:105D9000049B2968059A2B6008A86B6806916A60C5
:105DA00040F8043D05960496FFF7BAFC05A8FFF7F6
:105DB000B7FC296819B9034A0A20FFF717F808B099
:105DC000BDE8F0811D4B0D0010B50446406808B1D8
:105DD000FEF765F9204610BD07B503690C308DE864
:105DE00009006846FFF7F0FF03B05DF804FB000010
:105DF00038B500230446036014200D46FEF74DF924
:105E000028B1012343608360024B03600561206079
:105E1000204638BDBC910D00F0B5002687B0066065
:105E20004660044618200F46FEF737F9CDF810D02B
:105E30000546059038B1FFF731F939462846AE825C
:105E4000EE82FFF79BF900232946059302AA01ABD6
:105E500003A8FFF7CDFF039B62682560636003A87A
:105E60000392FFF75DFC04A8FFF7AEFF23680BB9B0
:105E7000FFF7BCF8204607B0F0BD00002DE9F04F59
:105E800017469FB0804605A80E46FFF7DFF83C682E
:105E90002379002B00F0F3803368DD681B6905EB84
:105EA000C303039304F1140A04F1280B039BAB42D0
:105EB00023D0D5F80090504609F11401FFF777F987
:105EC000002800F0E18009F128015846FFF76FF93A
:105ED000002800F0D980236823F47F41D9F80030EE
:105EE00023F47F43994240F0CF8020236B4A1393E1
:105EF00000230092149313AABDE004F1280528465C
:105F0000FFF723F918B966492846FFF742F93368C5
:105F1000D3F800905B6809EBC30AD145294608D045
:105F2000D9F80000FFF743F9002837D109F1080933
:105F3000F3E706A8FFF770FF13AA2B4604F1380C0D
:105F4000964618685968154603C5083363452A46BE
:105F5000F7D118682860069A002314327146012090
:105F6000FEF74CFD00287ED1356806A90BA8FFF787
:105F7000CDFB28460BA9FFF70CFE05460CA8FFF742
:105F8000CFFB002D6FD032685368126803F10053C5
:105F9000013B07A802EBC309FFF7C2FB04F114059C
:105FA0002846FFF7D2F868B93E4B3D491A880132BE
:105FB00092B21A8013A80123FFF7B3F813A9284659
:105FC000FFF7DCF84FF02C0A5246002113A802F02C
:105FD00094FE012306AAADF84C30ADF84EA02B4636
:105FE00004F1240C1546186859689646AEE803007B
:105FF000083363457246F6D11868CEF800000FCD1D
:106000000DF1580EAEE80F002B68CEF80030237962
:106010008DF85030D9F800309B8AADF86C30E36BC6
:1060200015930022204B1C93A11D13A81D94FEF76D
:106030000DFD20BB01232370346839460C340BA8B6
:10604000FFF756FB20460BA9FFF710FE04460CA8ED
:10605000FFF766FB9CB920230B93144B00930C9421
:1060600023460BAA07E039464046FFF741FB07A845
:10607000FFF756FB0AE00E493220FEF7BFFE394615
:106080004046FFF735FB01E008350FE705A8FEF7AE
:10609000EBFF40461FB0BDE8F08F00BF71930D00CD
:1060A000EC910D008CE30320FD550D004A930D008B
:1060B000FC910D00024800230360FEF70FBD00BFF6
:1060C00090E3032010B58368044613B10322014610
:1060D0009847204610BD002211464068FEF71ABFBF
:1060E000002211464068FEF725BF00224068FEF7F7
:1060F00019BF002281F001014068FEF703BF0023B1
:106100001A4619464068FEF7F5BE00231A4619469E
:106110004068FEF7E7BE002211464068FEF7DABE8F
:10612000002211464068FEF7C5BE002202214068E9
:10613000FEF7C8BE00231A464068FEF7B3BE000053
:10614000024B03225A60024A1A60704794E303200C
:10615000A4930D007047F8B5064615460C468F18F7
:10616000BC4206D0336814F8011B9B683046984740
:10617000F6E72846F8BD0022007CFEF7F7BC0021B8
:10618000007CFEF7FBBC0021007CFEF7FFBC002179
:10619000007CFEF703BD0021007CFEF707BD10B5B3
:1061A0001421044601F0C9FF204610BD10B5044675
:1061B0004FF47A730846A3600021044B2074616099
:1061C0002360FEF703FD204610BD00BFD8930D00ED
:1061D0000021007CFEF7F2BC704710B51821044680
:1061E00001F0ABFF204610BDF0B5037D062B8DB04E
:1061F0000E4600F104074FF0000402D000F108053C
:1062000018E00CAD394605F8304D2F232A460A20F8
:10621000FEF7E4FC284602F0FDFD33680246DB6829
:106220002946304698470FE024B12E21304601F030
:106230003DFB044415F8011D0A22304601F072FBB3
:10624000BD420444F0D120460DB0F0BD10B5054B61
:106250000446112240F8043B002102F04EFD204686
:1062600010BD00BF00940D000346074A10B543F867
:10627000042B01F1100251F8044B43F8044B9142F6
:10628000F9D10A781A7010BD00940D0010B59DF870
:10629000084044EA032343EA024242EA016104233C
:1062A0004160037510BD37B50D788B784A78C97891
:1062B00000912946FFF7EAFF03B030BD00F110025C
:1062C000012312F8101C0129104604D152F8041CB5
:1062D00003EB410304E0022904BF52F8041C5B18DD
:1062E000013B02F11002ECD170470EB42DE9F041F0
:1062F00087B000AF07F13404054654F8046B7C60A6
:1063000023463246102107F10800FEF733FE0F281E
:1063100016D900F1080323F00703E846ADEB030D9F
:106320003246411C234668467C60FEF723FE021E6F
:1063300004DD2B6869469B6828469847C54607E0F8
:1063400030B12B6802469B6807F108012846984740
:106350001C37BD46BDE8F04103B0704713B502AB32
:10636000026803F8011D946819460122A04702B093
:1063700010BD8368FBB11A78032A1AD8DFE802F04F
:106380000417021D0520704702685B685268D05CE4
:106390002D2814D0A0F13003092B10D9742810D067
:1063A00066280ED0A0F16E0358425841704706206F
:1063B000704700207047184670470420704703203C
:1063C00070470220704710B50446FFF7D2FF02283D
:1063D0000DD016D3042814D82268A36850685B68CF
:1063E0000A2200211844BDE8104002F0D5BD226801
:1063F000A36852685B68D05CA0F1740358425841AE
:1064000010BD002010BD10B5436904465BB1806823
:10641000E060013B1030A060206163612BB1FFF7A9
:106420004DFFA06001E0184610BD012010BD10B561
:106430007D210446FFF792FF01232371204610BD02
:1064400008B50379012B02D0022B02D008BD2C2104
:1064500000E03A21FFF782FF08BD10B50446FFF7C0
:10646000EFFF20467B21FFF779FF002323712046B1
:1064700010BD000038B504460D46FFF7E1FF236864
:106480000449DB6820462A469847012323712046A9
:1064900038BD00BF1B940D0038B504460D46FFF70C
:1064A000CFFF23680449DB6820462A46984701232A
:1064B0002371204638BD00BF63900D00F8B50D462E
:1064C0001746222104462F44FFF748FF2A46294653
:1064D000BA4238D0164616F8015B222D03D05C2D47
:1064E00001D01F2D2DD82368521A9B68204698474B
:1064F0005C212046FFF732FF0C2D19D007D8092D5B
:106500000FD00A2D12D0082D14D162210AE0222DBD
:1065100005D05C2D03D00D2D0CD1722102E029464F
:1065200000E074212046FFF719FF09E06E21F9E72A
:106530006621F7E723680A49DB682A462046984720
:1065400031463246C4E7914204D02368521A9D680E
:106550002046A84722212046FFF700FFF8BD00BFD4
:1065600026940D0070B504460D461646FFF768FFE9
:10657000204632462946FFF7A1FF02232371204619
:1065800070BD70B504460D461646FFF759FF20460C
:1065900032462946FFF792FF01232371204670BD42
:1065A00010B500230446036043601048A060E36018
:1065B000D1B10B78032B06D0B3B9136858684B6878
:1065C000C35C6E2B08D0136858684B680344A36003
:1065D0008B6849685B1AE3601146204651F8043B1A
:1065E00040F8043BFFF73AF9204610BD18950D001E
:1065F000002310B50446036043608360C3600361F9
:10660000436171B10B78012B0BD101F11003836051
:10661000CB684361114651F8043B40F8043BFFF757
:106620001DF9204610BD002310B5044603604360E9
:10663000816031B1114651F8043B40F8043BFFF74B
:106640000DF9204610BD80680368DB681847704765
:1066500019B10B6808465B681847704719B10B6899
:1066600008465B681847704770477047704738B5F1
:1066700004460D4600682E2102F0B8FB2368C31AB9
:106680002B6023B1037803B10130236820601846E2
:1066900038BD10B50C21044601F04FFD204610BD59
:1066A00010B50421044601F048FD204610BD10B588
:1066B0000421044601F041FD204610BD38B50C46CA
:1066C000054601F001FC84420DD001F06FFB8442CD
:1066D00005D101F06BFBBDE8384001F060BB2146FD
:1066E0002846FFF7BBFF38BD08B502F089FBB0FABA
:1066F00080F0400908BD38B5054608460C4602F052
:1067000089FB214602462846BDE83840FFF739BFDD
:106710000068FEF7EBB970B5044608460D4602F076
:1067200079FB2368024629462046DB68BDE87040B5
:10673000184713B502AB026803F8011DD468194667
:106740000122A04702B010BD2DE9F04F456807684F
:1067500085B09146142255430193AB10194D029216
:106760005D438B463C460123002D039323DD029BB2
:106770006E1003FB06F004EB00084A46B8F804A0CC
:106780002058D14528BF5246594602F04BFB039B87
:1067900048B9D14503D1019A13703546E4E78CBF5F
:1067A0000120002000E0C00F0028F6D0AE1B08F149
:1067B0001404013EF1E7E41B0248A410604305B055
:1067C000BDE8F08FCDCCCCCCF0B585B0036901919C
:1067D000067E13B309B304AF002347F8043D00F16C
:1067E0000C041D46394601A8FFF741FF0146A0B140
:1067F00004AB039A03F8055D2046FFF7A5FF9DF85B
:106800000B3053B12368142404FB0034083434F9EA
:10681000023C002BA8BFDEB2E4E7304605B0F0BD75
:1068200010B5094C2368DB070BD42046FDF746FC66
:1068300038B12046FDF747FC044A0549054801F0F8
:1068400077FC044810BD00BF9CE3032094E20320C2
:106850006B660D0024E2032010B5094C2368DB07AA
:106860000BD42046FDF72AFC38B12046FDF72BFC5F
:10687000044A0549054801F05BFC044810BD00BF0F
:10688000CCE3032094E2032069660D0020E203209C
:1068900038B50025044605604560856005614561A1
:1068A000856140F8245FFEF719F9FFF7B9FFE06151
:1068B000FFF7D2FF25732062204638BD10B50A4C81
:1068C0002368DB070ED42046FDF7F8FB50B10748DC
:1068D000FFF7DEFF2046FDF7F6FB054A05490348B2
:1068E00001F026FC014810BDA0E30320A4E303202F
:1068F00094E20320276D0D000023024A0249034859
:10690000FEF794BA096C0D00996B0D00216B0D0018
:1069100000231A4619461846FEF788BA73B502AC2A
:106920000E6951F8043B44F8083D054601A8FEF7FE
:10693000D8FE224631462846FFF775FE01A8FEF72D
:10694000EFFE284602B070BD73B502AC8E6851F8F8
:10695000043B44F8083D054601A8FEF7C2FE224666
:1069600031462846FFF744FE01A8FEF7D9FE284627
:1069700002B070BD73B502ACCE6851F8043B44F868
:10698000083D054601A8FEF7ACFE224631462846E2
:10699000FFF706FE01A8FEF7C3FE284602B070BD51
:1069A00030B58BB00D46014604A8FFF7CDFF04A813
:1069B000FFF729FDE8B104A96846FFF7DBFF0F499F
:1069C0000298FFF791FE044610B12C1C18BF012459
:1069D00001A8FEF7A5FE002CE9D004A96846FFF740
:1069E0009DFF6846FFF7EFFC286001A8FEF798FEC0
:1069F000DDE705A8FEF794FE0BB030BD74940D00E2
:106A000037B50C4620461349154602F0F9F940B94E
:106A100001F05AFA4FF4165101F044FA01F054FA19
:106A200015E00D49204602F0EBF978B902A94FF4C0
:106A3000165341F8043D2846FFF7B2FF01F0B6F9BE
:106A4000019901F0A9F901F0B1F900E0002003B0CB
:106A500030BD00BF79940D0080940D0070B50468BE
:106A600043681426054606FB0346A64205D004F1FA
:106A70000800FFF7F3FF1434F7E72868FEF76AFA17
:106A8000284670BD70B504684368054604EB0316DC
:106A9000A64204D0204601F088F81034F8E72868B0
:106AA000FEF758FA284670BD10B504460C30FFF7C3
:106AB000D5FF2046FFF7E6FF204610BD10B5044B7A
:106AC000044640F8043BFFF7EFFF204610BD00BF2F
:106AD000C88F0D0010B50446FFF7F0FF20462421B3
:106AE00001F02BFB204610BD10B5034B036004469C
:106AF000FFF7E4FF204610BD4C940D0010B504468E
:106B0000FFF7F2FF2046242101F017FB204610BDBD
:106B100010B5036804461868FDF7F0FF204610BD65
:106B20002DE9F04F9B461B4B5B68C3F3080385B010
:106B300082460E46904653BBFFF7C0FE0446243003
:106B40000390FFF7E5FD237BF3B901232373256849
:106B50006368F6B205EB83094D4513D055F8047B05
:106B60004146381DFFF730FE8642F5D33B68CDF82D
:106B700000B09B689E4638464346324651467746AB
:106B8000B847E9E70023237303A8FFF7C1FF05B067
:106B9000BDE8F08F00ED00E02DE9F74F9946194B65
:106BA0005B68C3F3080307468846164633BBFFF706
:106BB00085FE044624300190FFF7AAFD237BD3B95C
:106BC00001232373256863685FFA86FB05EB830A5C
:106BD00055450ED055F8046B4946301DFFF7F4FDBE
:106BE0008345F5D333684246DB68394630469847DB
:106BF000EEE70023237301A8FFF78AFF03B0BDE887
:106C0000F08F00BF00ED00E02DE9F341154B5B680C
:106C1000C3F3080304468846FBB9FFF74FFE064658
:106C200024300190FFF774FD96E8A000462605EB9E
:106C30008707AF4207D101A8FFF76AFFB442B4BF8C
:106C4000002001200AE055F8040B41460430FFF70C
:106C5000BBFD8642A8BF0646EBE7002002B0BDE8B8
:106C6000F08100BF00ED00E070B5036842680446A3
:106C700003EB82029A4218460ED006680D68AE42B7
:106C800003F10403F6D1011D521A02F01BF86368E8
:106C9000013B6360012070BD002070BD1FB504463C
:106CA000243001910390FFF733FD01A92046FFF73F
:106CB000DBFF20B903A8FFF72BFF04B010BD63680A
:106CC000002BF7D1FFF724FEF4E770B5056943699F
:106CD0001826044606FB0356AE4215D005F11001F6
:106CE0002046FFF7C1FF63680BB9FFF711FEE069AB
:106CF00029690368DB689847696919B1206A0368E4
:106D0000DB6898471835E7E725696369182606FBAD
:106D10000356B54204D0284600F047FF1835F8E77F
:106D20000023636170BD73B5044602ADFFF7F0FD4B
:106D300004F1240045F8040DFFF7EAFC2046FFF7B4
:106D4000C4FF2846FFF7E4FE25696369182606FBA1
:106D50000356B54204D0284600F027FF1835F8E75F
:106D60002069FEF7F7F82068FEF7F4F8204602B035
:106D700070BD03680A6802600B6043684A6842603D
:106D80004B6083688A6882608B60704710B500230F
:106D90000446036043608360FFF7EBFF204610BDAD
:106DA0008842F8B50446164625D9904224D2551A91
:106DB000143D2C44A1F11407A2F10C050026A5F105
:106DC00008039F4237D084B155F8083C236035F85A
:106DD000043CA38035F9023CE380A660E6602661AE
:106DE000294604F10800FFF7C4FF2846FFF736FEE6
:106DF000143C143DE3E71ED001F108050027A5F17E
:106E000008039E4217D084B155F8083C236035F83A
:106E1000043CA38035F9023CE380A760E76027616A
:106E2000294604F10800FFF7A4FF2846FFF716FEE5
:106E300014341435E3E7F8BDF8B5456883689D421E
:106E400004460E4617460EDB0135002D05DDA90070
:106E50000068FEF787F820B9F8BD0068FEF77AF8F9
:106E600000202060A5602568626805EB860105EBBF
:106E70008202521A081D01F025FF45F8267063684A
:106E8000013363600120F8BD37B5044624300D4658
:106E90000190FFF73DFC2368616803EB81008342AA
:106EA0001A4609D01268AA4203F10403F7D101A8D7
:106EB000FFF72EFE00250EE02A462046FFF7BCFF16
:106EC00005460028F3D06368012B01D1FFF714FDBC
:106ED00001A8FFF71DFE284603B030BD8842F8B573
:106EE00006460C46154614D9904213D2A2F110055D
:106EF0006C1AA1F110070444AF4218D01CB1294606
:106F0000204600F042FE284600F04FFE103D103CA7
:106F1000F2E70CD0AC420AD01EB12146304600F058
:106F200034FE204600F041FE10341036F2E7F8BD82
:106F300070B50E1E05460BDD3001FEF703F8044662
:106F400070B195E8060001EB0212FFF7C7FF00E001
:106F500000242868FDF7FEFF2C60AE60012070BDA4
:106F600070BD2DE9F04F002395B092464622036094
:106F700043608360C3600361436102760291DAF883
:106F8000041008939942054609930A9340F39D80A3
:106F900008A8FFF7CDFF002840F097808EE021463B
:106FA0000BA800F0F2FD0BA90FA8099E00F0EDFD63
:106FB00009990A9B9942C0F2CE80013108A8FFF7D7
:106FC000B7FF002840F0C7800FA800F0EEFD0BA827
:106FD00000F0EBFD1434A742E1D100260B960C968D
:106FE0000D96B146099B9E4280F2A8803301089A13
:106FF000D3580693002B00F09F8014237343CDF8E1
:107000001C9001930BAC07A906A8FFF730FB0746BD
:10701000002800F0918014AB014603F8399D079ACF
:107020002046FFF791FB9DF817800090B8F1000F04
:1070300053D1BDF81C30ADF840304FF6FF730F97B9
:10704000ADF84230CDF84480CDF84880CDF84C8082
:107050006768A3689F424FDA009BD4F800B061686C
:10706000142253430BEB030702FB01B207F1140098
:1070700039460393FFF794FEA7B1039B0F9A4BF891
:107080000320BDF84030BB80BDF94230FB80C7F81B
:107090000890C7F80C90C7F8109011A907F10800E4
:1070A000FFF767FE63680133636011A8FFF7D6FC42
:1070B000B8F1000F11D00BA8FFF7D0FC08A8FFF71C
:1070C000E1FC284615B0BDE8F08FDAF80040DAF8A8
:1070D0000430142707FB03477DE72368009A142434
:1070E00004FB0234069B1B7823BBDAF80030019ABC
:1070F00013441B7CE3801DE00137002F0FDD1423B8
:1071000003FB07F00393FDF71DFF834678B194E876
:107110000600039B03FB0212FFF742FE00E0C3469A
:107120002068FDF717FFC4F800B0A76094E74FF0A0
:107130000108BAE7083466E7013653E708A928468C
:10714000FFF717FE0BA905F10C00FFF712FE9DF8E3
:1071500008302B76AFE7089B099A03EB061603EB82
:107160000212314606F11000FFF7B8FE1EB10FA95A
:10717000304600F00AFD099B0133099324E7000023
:107180007FB50446094B44F8043B05460E4601A86A
:107190001146FDF74FFA01AA31462046FFF7E1FEFE
:1071A00001A8FDF7E3F8284604B070BDC88F0D00B4
:1071B000F0B50F468BB02B49109C384616461D463D
:1071C00001F01EFE28BB002C49D0294601A8FFF77C
:1071D000DDFD2549242000F0BBFF0546B8B101A91B
:1071E00004A8FFF7D3FD04A907A8FDF723FA07AA0F
:1071F00031462846FFF7C4FF07A8FDF7B7F81B4B39
:107200002B602C6204A8FDF7B1F8194B2B6001A884
:107210001FE01849384601F0F3FDF0B9FCB12946EA
:1072200004A8FFF7B3FD1049242000F091FF0546A4
:1072300070B104A907A8FDF7FDF907AA3146284651
:10724000FFF79EFF07A8FDF791F8084B2B602C6213
:1072500004A8FDF78BF8284602E0002000E0204655
:107260000BB0F0BDD2940D00BC960D005C950D00E6
:107270004C940D00D6940D00014B024A1A607047E1
:10728000D0E30320E7940D002DE9F047089DD0F8E6
:10729000209004460E461746984600F015FE81459C
:1072A00005D15A4800F067FA002840F0AC802B79ED
:1072B0001B0705D56B69564A206A002100F034FB94
:1072C000B8F1000F0DD05B212046FFF732FA41469E
:1072D0002046FFF720FA23684E49DB680222204649
:1072E00098472B79D90725D5D5F808802F21404616
:1072F00001F0B9FD08B100F1010841462046FFF751
:107300000AFA2B799A0709D53A212046FFF711FA94
:10731000EB68414A206A002100F006FB2B7913F04C
:10732000040F236818BF3D49DB6808BF3C490222AF
:10733000204698472B795B0718D529690A461346DA
:1073400013F8010B38B1202801D1194601E0282893
:1073500001D01A46F3E72368521ADB6820469847A3
:1073600023683049DB6804222046984700213846CC
:10737000FDF754FD01462046FFF7CDF92368284963
:10738000DB680222204698471EB131462046FFF7AF
:10739000C2F92B7913F0300F2DD023682249DB6816
:1073A0002046022298472B79D8060BD523681F491F
:1073B000DB68072220469847AB691D4A206A0021F6
:1073C00000F0B2FA2B79990611D5DA0605D52368B3
:1073D0001249DB6802222046984723681549DB687A
:1073E00020460A229847E9692046FFF794F95D2173
:1073F0002046FFF79EF923680F49DB6820460222EA
:10740000BDE8F0471847BDE8F08700BFA8E50320B6
:10741000EB940D00F2940D001B940D00F5940D00FB
:10742000FA940D00F8940D00FD940D0000950D00E8
:1074300008950D000B950D0016950D002DE9F043F4
:1074400085B0D0F820800C9C06460F4691461D461C
:1074500000F03AFD804505D14A4800F08CF900283B
:1074600040F08C80336A484A01924FF0000801A82E
:1074700003938DF80880FEF7F0FF41464846FDF77C
:10748000CDFC42498046012201A8FFF76BF8414636
:10749000FFF731F93FB13E49012201A8FFF762F839
:1074A0003946FFF728F93DB13A49012201A8FFF713
:1074B00059F82946FFF71FF92379DF070ED5A5688C
:1074C0002F21284601F0CFFC00B1451C3249012292
:1074D00001A8FFF747F82946FFF70DF923799D0723
:1074E00007D52E49022201A8FFF73CF8E168FEF714
:1074F000C1FF2379580716D525692F463B4613F857
:10750000012B3AB1202A01D11D4601E0282A01D0E1
:107510001F46F3E70222224901A8FFF723F87A1B4E
:107520002946FFF72EF82379190707D51D490122AF
:1075300001A8FFF717F86169FEF7AEFF2379DA06B5
:1075400008D5042218490DEB0200FFF70BF8A169DA
:10755000FEF790FF23799B0607D51449062201A860
:10756000FFF700F8E169FFF7C6F801A8FEF75FFF33
:10757000306A0F4903680222DB68984705B0BDE80E
:10758000F08300BFA8E5032034940D007E940D0025
:1075900091940D0090900D0019950D001B950D0014
:1075A0001E950D0073900D0021950D0026950D0080
:1075B00016950D00002211464068FDF7ABBC002275
:1075C00011464068FDF7B6BC00224068FDF7AABC32
:1075D000002281F001014068FDF794BC00231A46A7
:1075E00001214068FDF786BC00231A461946406811
:1075F000FDF778BC002211464068FDF76BBC002205
:1076000011464068FDF756BC002202214068FDF794
:1076100059BC00231A464068FDF744BC38B50546FE
:1076200088B104684CB1A3681BB1032221462046EF
:1076300098471021204600F080FD28461421BDE81F
:10764000384000F07ABD38BD10B103685B68184758
:10765000704710B503680446BBB15868FDF71EFAC1
:1076600078B923685A7C12B95868FDF71FFA236865
:107670005868FDF723FA20680023236028B1FFF73C
:10768000CDFF206808B1FFF7C9FF204610BD0000FC
:1076900038B50C4B03600446D0F8CC0108B1FCF7B8
:1076A00000FDD4F8C45135B12846FFF7D2FF0421BC
:1076B000284600F042FDA06808B1FFF7C5FF20464C
:1076C00038BD00BF8C950D0038B50E4C0E4B2360B5
:1076D0000025022304F5E4706360A560C4F8C4517A
:1076E000C4F8C851FDF7FAF9084BC4F8CC5184F836
:1076F000D05123602046064A0649BDE8384000F0D4
:1077000017BD00BFD4E30320C0950D008C950D007C
:1077100094E2032091760D0000231A464068FDF79D
:10772000C1BB002202214068FDF7CCBB00221146FC
:107730004068FDF7BFBB002211464068FDF7CABB99
:1077400000231A4619464068FDF7CCBB00231A46B1
:1077500019464068FDF7CEBB002281F00101406868
:10776000FDF7D0BB00224068FDF7DCBB00221146CC
:107770004068FDF7DFBB002211464068FDF7CABB39
:107780002DE9F043002495B016460D460746FEF756
:107790005DFD214620220CA8009401F0AEFA4023A2
:1077A0000C9321466B460CAA3046FDF727FA044697
:1077B000002844D1024601216868FDF78BFB0221B5
:1077C000804622466868FDF785FB009E814621467B
:1077D000002E34D0002932D17368022B02D00A2B3C
:1077E00009D02AE0B8F1000F27D07169384604317A
:1077F000FEF759FD20E0B9F1000F1ED07469112287
:1078000001A801F07AFA06238DF8143001AD04F1D5
:1078100008031834186859682A4603C20833A3427B
:107820001546F7D101A906A807ADFEF71DFD0FCD3E
:107830003C1D0FC42B6823700121F669C8E700982E
:10784000FDF7D4F9384615B0BDE8F083024B034A82
:107850001A6000225A607047A8E50320C0950D0009
:10786000F8B506460D468F180024BD420CD033688B
:1078700015F8011B9B6830469847002801DB04443B
:10788000F3E7002C08BF04462046F8BD70B5054656
:107890000C46084649B101F0BDFA2B680246214664
:1078A0002846DB68BDE87040184770BD03689B68D8
:1078B000184738B50D210546FFF7F8FF0A210446A1
:1078C0002846FFF7F3FF204438BD30B58BB00B4698
:1078D00000218DF82410012A98BF0A220DF12304FB
:1078E000B3FBF2F505FB123303F0FF03092B94BF42
:1078F00030333733DBB2214604F801392B46002DF3
:10790000EED1FFF7C3FF0BB030BD10B42AB9036846
:107910005DF8044B9B68C9B21847D2B25DF8044BBE
:10792000FFF7D3BFFFF7F1BF0CB42DE9F04387B0E9
:1079300000AF07F13804054654F8049B3C600E463E
:1079400023464A461421381DFDF714FB132805D899
:10795000391D2846FFF79AFF044613E000F108039B
:1079600023F00703E846ADEB030D411C23464A46CE
:1079700068463C60FDF7FEFA69462846FFF786FF39
:107980000446C5461EB12846FFF793FF044420462F
:107990001C37BD46BDE8F04302B0704710B5044641
:1079A000FEF790FB204610BD10B50446FDF70EFA19
:1079B000844208D01CB1BDE81040FDF7F7B9BDE81E
:1079C0001040FDF7FBB910BD70B505460E461446D4
:1079D000FDF7FCF950B144EA062040EA0540FDF706
:1079E000DDF9E720BDE87040FDF7F8B970BD000093
:1079F0000348044A04490023836000F099BB00BF98
:107A0000B0E5032094E203209D790D00B0F9002039
:107A1000531C0BD0438880888B4203D8884203468E
:107A200028BF0B46194690B2FDF700B9704737B52D
:107A300004460846B4F90610B4F90820814203DC74
:107A40009042A8BF104600E00846A58863880095CC
:107A5000FDF798FAE168014489B2204603B0BDE819
:107A60003040FFF7D3BFB0F90000431C02D080B212
:107A7000FDF7E4B80020704773B50446FFF7F3FF45
:107A8000E568B4F90860B4F90630A2886188009608
:107A9000401BFDF777FA03B2B4F90600834204D025
:107AA000B4F90800834218BF581C02B070BDB4225C
:107AB0004FF6FF7302814FF4087203804280002367
:107AC0004FF41662C3808280C360704708B5FFF729
:107AD000EEFF08BD10B50446B0F90000431C07D006
:107AE00080B2FDF79BF82046FFF7E1FF012010BDB3
:107AF000002010BD2DE9F0410D4604460221284624
:107B000090461F46FDF72AF8022801D0002619E00A
:107B1000284600F0A7FA06460028F7D0B4F900304E
:107B2000013302D02046FFF7D5FFBDF91830E380BE
:107B3000BDF91C302580A4F80280A7802381284647
:107B4000FDF764F83046BDE8F081704710B51021AC
:107B5000044600F0F2FA204610BD000070B5084B54
:107B60000360044600250E4640F80C5FFCF7AEFFAC
:107B700030462671FDF76AF8A560204670BD00BF4B
:107B8000F4950D000079FDF769B8002303604360A8
:107B90008360037310B50C6804604C6844608C68A3
:107BA00084600B604B608B6010BD10B504460068AC
:107BB000FDF7D0F9204610BD10B50446006808B1A5
:107BC000FDF7C8F900232360A360636010BD38B5DA
:107BD00004460D4600680131FDF7C4F910B184E890
:107BE0002100012038BD10B50368044613B1436875
:107BF0008B4207D22046FFF7EAFF20B1A3680BB9FA
:107C000022681370012010BD70B50E46114604465F
:107C10001546FFF7E8FF18B92046FFF7CDFF09E04A
:107C20002A463146A560206801F041F82268A36821
:107C30000021D154204670BD38B5002304460360AE
:107C40004360836003730D4639B1084601F0E2F8E2
:107C5000294602462046FFF7D7FF204638BD884216
:107C600010B50B46044607D0096819B19A68FFF7AA
:107C7000CBFF01E0FFF7A0FF204610BD10B50023A9
:107C800004460360436083600373FFF7E8FF204608
:107C900010BD38B505460C4641B1084601F0BAF8AA
:107CA000214602462846FFF7AFFF01E0FFF784FFB9
:107CB000284638BD044B00204FF6FF7218705880DC
:107CC0009A80FDF7BBB800BFC0E50320024B1A68DD
:107CD000024B1A60704700BF28E20320C8E503206A
:107CE00070474174704708B5007CFCF7FFFF20EA3D
:107CF000E07008BD08B5007CFCF7D0FF20EAE0701A
:107D000008BD08B5007CFCF7D9FF30EA200028BF89
:107D10004FF0FF3008BD08B5007CFCF7C7FF30EA24
:107D2000200028BF4FF0FF3008BD007CFCF7CEBF1D
:107D300010B51421044600F000FA204610BD70B5BD
:107D4000457C04460E4625B9007CFCF7CFFF002891
:107D500005DD3146207CBDE87040FCF797BF284622
:107D600070BD000010B5044608461146002262604E
:107D70004FF47A72A260054A226001222074627474
:107D80001A46FCF773FF204610BD00BF30960D0069
:107D90000023007CFCF7B2BF0022FFF7F9BF007C94
:107DA000FCF76CBF007CFCF799BF000038B50C4DA8
:107DB000296811F0010411D12846FCF77FF968B158
:107DC000084A094B09482146FFF7CCFF2846FCF733
:107DD0007AF9074A0749054800F0AAF9034838BD6F
:107DE00064E6032068E60320E0E50320CCE50320F9
:107DF00094E20320E17C0D0041747047704708B5A0
:107E00000021007CFCF7AAFF30EA200028BF4FF0D9
:107E1000FF3008BD08B50121007CFCF79FFF30EA68
:107E2000200028BF4FF0FF3008BD08B5007CFCF7EC
:107E30008DFF20EAE07008BD08B5007CFCF77EFFEE
:107E400020EAE07008BD007CFCF798BF10B5142153
:107E5000044600F072F9204610BD38B50446007C97
:107E60000D46FCF773FF002801DC607C28B1294631
:107E7000207CFCF77BFF20EAE07038BD10B504469B
:107E8000002363604FF47A73A360054B23600123E2
:107E90000846217463741146FCF738FF204610BD74
:107EA00060960D000022007CFCF738BF007CFCF7D8
:107EB0003DBF007CFCF76ABF10B5142204460021C8
:107EC00000F01BFF204610BD30B50E4D87B001A855
:107ED000FFF7F2FF296811F0010410D12846FCF7E2
:107EE000EDF860B101AA21460748FFF7C7FF284611
:107EF000FCF7E9F8054A0649034800F019F9024879
:107F000007B030BDECE60320F0E6032094E2032046
:107F1000FD7D0D00002211464068FCF7DBBF00220A
:107F200011464068FCF7F6BF002211464068FDF795
:107F300001B800224068FCF7F5BF002281F0010182
:107F40004068FCF7DFBF00231A4619464068FCF77B
:107F5000D1BF00231A4619464068FCF7C3BF002270
:107F600011464068FCF7A6BF002202214068FCF7DA
:107F7000A9BF00231A464068FCF794BF024B0422B5
:107F80005A60024A1A60704704E7032090960D0079
:107F900008B50C4B33B1FFF797FF03681B6998478F
:107FA000002809DC084B63B1FFF700FF03681B6979
:107FB0009847002803DC08BDAFF30080F2E7AFF379
:107FC000008008BD000000000000000008B5FFF7B9
:107FD000DFFFFCF7ABFD014B186008BD10E7032085
:107FE00007B5002300931A466FF07701FCF740FFB6
:107FF00003B05DF804FB000007B543880A2B08D0E6
:10800000502B09D1094B1B683BB103B05DF804EB61
:108010001847FFF7E5FF06E0002300931A466FF0CC
:108020007701FCF725FF03B05DF804FB0CE70320A4
:1080300010B5FCF76BFD044600F068FE074B13B16A
:108040002046AFF3008000210448FCF723FF002105
:108050000348BDE81040FCF701BF00BF000000006E
:10806000F97F0D0010B504460F48FFF78BFD28B1CE
:10807000A4F10B03022B01D8002010BD00F016F86C
:10808000FEF7A6F808B1012CF6D9FFF78FFEFFF72F
:1080900089FE18B1A4F10903012BEDD9232C8CBF63
:1080A0000020012010BD00BF2CE7032038B50B4D88
:1080B000296811F001040FD12846FBF7FFFF58B1E2
:1080C00021460748FEF772F82846FBF7FCFF054AF1
:1080D0000549034800F02CF8014838BD14E7032097
:1080E00018E7032094E2032055610D0070B50C4C95
:1080F0000C4E0D4D00212046FFF730FD20460B4C65
:108100003246294600F014F801212046FFF726FDEB
:10811000324629462046BDE8704000F009B800BF4D
:108120002CE7032094E203204B7B0D003CE7032067
:108130000B460146184600F09DBDFBF7B0BF00009E
:10814000024B1868BFF35F8F704700BF4CE70320F6
:1081500010B5002814BF044601242046FCF7F2FEA7
:1081600020B9FFF7EDFF08B18047F6E710BD00002A
:10817000244B1A68D0075CBF01221A60224B1A6890
:10818000D1075CBF01221A60204B1A68D2075CBF7E
:1081900001221A601E4B1A68D0075CBF01221A60C8
:1081A0001C4B1A68D1075CBF01221A601A4B1A686F
:1081B000D2075CBF01221A60184B1A68D0075CBF57
:1081C00001221A60164B1A68D1075CBF01221A609F
:1081D000144B1A68D2075CBF01221A60124B1A684E
:1081E000D0075CBF01221A60104B1A68D1075CBF30
:1081F00001221A600E4B1A68D2075CBF01221A6076
:10820000704700BF7CE7032078E7032074E7032072
:1082100070E703206CE7032068E7032064E703208E
:1082200060E703205CE7032058E7032054E70320BE
:1082300050E70320184B1A68D1075CBF01221A606F
:10824000164B1A68D2075CBF01221A60144B1A68D9
:10825000D0075CBF01221A60124B1A68D1075CBFBD
:1082600001221A60104B1A68D2075CBF01221A6003
:108270000E4B1A68D0075CBF01221A600C4B1A68BB
:10828000D1075CBF01221A600A4B1A68D2075CBF93
:1082900001221A60704700BF9CE7032098E7032083
:1082A00094E7032090E703208CE7032088E703206E
:1082B00084E7032080E70320184B1A68D1075CBFCE
:1082C00001221A60164B1A68D2075CBF01221A609D
:1082D000144B1A68D0075CBF01221A60124B1A684F
:1082E000D1075CBF01221A60104B1A68D2075CBF2D
:1082F00001221A600E4B1A68D0075CBF01221A6077
:108300000C4B1A68D1075CBF01221A600A4B1A682D
:10831000D2075CBF01221A60704700BFBCE7032090
:10832000B8E70320B4E70320B0E70320ACE703205D
:10833000A8E70320A4E70320A0E70320244B1A6842
:10834000D0075CBF01221A60224B1A68D1075CBFBC
:1083500001221A60204B1A68D2075CBF01221A6002
:108360001E4B1A68D0075CBF01221A601C4B1A68AA
:10837000D1075CBF01221A601A4B1A68D2075CBF92
:1083800001221A60184B1A68D0075CBF01221A60DC
:10839000164B1A68D1075CBF01221A60144B1A6889
:1083A000D2075CBF01221A60124B1A68D0075CBF6B
:1083B00001221A60104B1A68D1075CBF01221A60B3
:1083C0000E4B1A68D2075CBF01221A60704700BFCB
:1083D000ECE70320E8E70320E4E70320E0E70320DD
:1083E000DCE70320D8E70320D4E70320D0E703200D
:1083F000CCE70320C8E70320C4E70320C0E703203D
:1084000081F0004102E000BF83F0004330B54FEA45
:1084100041044FEA430594EA050F08BF90EA020FB2
:108420001FBF54EA000C55EA020C7FEA645C7FEA45
:10843000655C00F0E2804FEA5454D4EB5555B8BF68
:108440006D420CDD2C4480EA020281EA030382EAD9
:10845000000083EA010180EA020281EA0303362D6B
:1084600088BF30BD11F0004F4FEA01314FF4801C3E
:108470004CEA113102D0404261EB410113F0004F50
:108480004FEA03334CEA133302D0524263EB430307
:1084900094EA050F00F0A780A4F10104D5F1200EA5
:1084A0000DDB02FA0EFC22FA05F2801841F1000100
:1084B00003FA0EF2801843FA05F359410EE0A5F1D4
:1084C00020050EF1200E012A03FA0EFC28BF4CF005
:1084D000020C43FA05F3C01851EBE37101F00045BB
:1084E00007D54FF0000EDCF1000C7EEB00006EEBC8
:1084F0000101B1F5801F1BD3B1F5001F0CD3490852
:108500005FEA30004FEA3C0C04F101044FEA4452A8
:1085100012F5800F80F09A80BCF1004F08BF5FEA2F
:10852000500C50F1000041EB045141EA050130BD0F
:108530005FEA4C0C404141EB010111F4801FA4F1B2
:108540000104E9D191F0000F04BF01460020B1FA07
:1085500081F308BF2033A3F10B03B3F120020CDA3F
:108560000C3208DD02F1140CC2F10C0201FA0CF01D
:1085700021FA02F10CE002F11402D8BFC2F1200C82
:1085800001FA02F120FA0CFCDCBF41EA0C01904038
:10859000E41AA2BF01EB0451294330BD6FEA040481
:1085A0001F3C1CDA0C340EDC04F11404C4F120026C
:1085B00020FA04F001FA02F340EA030021FA04F37E
:1085C00045EA030130BDC4F10C04C4F1200220FAD5
:1085D00002F001FA04F340EA0300294630BD21FA13
:1085E00004F0294630BD94F0000F83F4801306BFD9
:1085F00081F480110134013D4EE77FEA645C18BFCD
:108600007FEA655C29D094EA050F08BF90EA020F63
:1086100005D054EA000C04BF1946104630BD91EA5B
:10862000030F1EBF0021002030BD5FEA545C05D15E
:108630004000494128BF41F0004130BD14F580049D
:108640003CBF01F5801130BD01F0004545F0FE4111
:1086500041F470014FF0000030BD7FEA645C1ABF46
:10866000194610467FEA655C1CBF0B46024650EA7D
:10867000013406BF52EA033591EA030F41F40021A9
:1086800030BD00BF90F0000F04BF0021704730B52F
:108690004FF4806404F132044FF000054FF0000104
:1086A00050E700BF90F0000F04BF0021704730B5C5
:1086B0004FF4806404F1320410F0004548BF40429A
:1086C0004FF000013EE700BF42004FEAE2014FEAEF
:1086D00031014FEA02701FBF12F07F4393F07F4FCA
:1086E00081F06051704792F0000F14BF93F07F4FFC
:1086F000704730B54FF4607401F0004521F000413F
:1087000020E700BF50EA010208BF704730B54FF0C4
:1087100000050AE050EA010208BF704730B511F0C9
:10872000004502D5404261EB41014FF4806404F101
:1087300032045FEA915C3FF4DCAE4FF003025FEA83
:10874000DC0C18BF03325FEADC0C18BF033202EB0B
:10875000DC02C2F1200300FA03FC20FA02F001FA65
:1087600003FE40EA0E0021FA02F11444C1E600BF04
:1087700070B54FF0FF0C4CF4E06C1CEA11541DBFB7
:108780001CEA135594EA0C0F95EA0C0F00F0DEF882
:108790002C4481EA030621EA4C5123EA4C5350EA67
:1087A000013518BF52EA033541F4801143F48013B8
:1087B00038D0A0FB02CE4FF00005E1FB02E506F049
:1087C0000042E0FB03E54FF00006E1FB03569CF09E
:1087D000000F18BF4EF0010EA4F1FF04B6F5007FA4
:1087E00064F5407404D25FEA4E0E6D4146EB060616
:1087F00042EAC62141EA55514FEAC52040EA5E509F
:108800004FEACE2EB4F1FD0C88BFBCF5E06F1ED848
:10881000BEF1004F08BF5FEA500E50F1000041EB7F
:10882000045170BD06F0004646EA010140EA02002C
:1088300081EA0301B4EB5C04C2BFD4EB0C0541EA4E
:10884000045170BD41F480114FF0000E013C00F363
:10885000AB8014F1360FDEBF002001F0004170BD87
:10886000C4F10004203C35DA0C341BDC04F11404A0
:10887000C4F1200500FA05F320FA04F001FA05F22C
:1088800040EA020001F0004221F0004110EBD370F9
:1088900021FA04F642EB06015EEA430E08BF20EA25
:1088A000D37070BDC4F10C04C4F1200500FA04F3C8
:1088B00020FA05F001FA04F240EA020001F000415A
:1088C00010EBD37041F100015EEA430E08BF20EACD
:1088D000D37070BDC4F1200500FA05F24EEA020E15
:1088E00020FA04F301FA05F243EA020321FA04F044
:1088F00001F0004121FA04F220EA020000EBD370FB
:108900005EEA430E08BF20EAD37070BD94F0000FFA
:108910000FD101F00046400041EB010111F4801F2E
:1089200008BF013CF7D041EA060195F0000F18BFDF
:10893000704703F00046520043EB030313F4801F1B
:1089400008BF013DF7D043EA0603704794EA0C0FD5
:108950000CEA135518BF95EA0C0F0CD050EA4106EB
:1089600018BF52EA4306D1D181EA030101F0004168
:108970004FF0000070BD50EA410606BF1046194690
:1089800052EA430619D094EA0C0F02D150EA01369C
:1089900013D195EA0C0F05D152EA03361CBF1046DD
:1089A00019460AD181EA030101F0004141F0FE417C
:1089B00041F470014FF0000070BD41F0FE4141F400
:1089C000780170BD70B54FF0FF0C4CF4E06C1CEA00
:1089D00011541DBF1CEA135594EA0C0F95EA0C0FB5
:1089E00000F0A7F8A4EB050481EA030E52EA033570
:1089F0004FEA013100F088804FEA03334FF0805591
:108A000045EA131343EA12634FEA022245EA1115BD
:108A100045EA10654FEA00260EF000419D4208BF6E
:108A2000964244F1FD0404F5407402D25B084FEA1B
:108A30003202B61A65EB03055B084FEA32024FF4C7
:108A400080104FF4002CB6EB020E75EB030E22BF24
:108A5000B61A754640EA0C005B084FEA3202B6EBE4
:108A6000020E75EB030E22BFB61A754640EA5C0093
:108A70005B084FEA3202B6EB020E75EB030E22BF23
:108A8000B61A754640EA9C005B084FEA3202B6EB24
:108A9000020E75EB030E22BFB61A754640EADC00E3
:108AA00055EA060E18D04FEA051545EA16754FEA45
:108AB00006164FEAC30343EA52734FEAC2025FEA63
:108AC0001C1CC0D111F4801F0BD141EA00014FF0F2
:108AD00000004FF0004CB6E711F4801F04BF0143C3
:108AE0000020B4F1FD0C88BFBCF5E06F3FF6AFAEDF
:108AF000B5EB030C04BFB6EB020C5FEA500C50F16F
:108B0000000041EB045170BD0EF0004E4EEA1131F1
:108B100014EB5C04C2BFD4EB0C0541EA045170BDF8
:108B200041F480114FF0000E013C90E645EA060E3C
:108B30008DE60CEA135594EA0C0F08BF95EA0C0F6A
:108B40003FF43BAF94EA0C0F0AD150EA01347FF4B2
:108B500034AF95EA0C0F7FF425AF104619462CE789
:108B600095EA0C0F06D152EA03353FF4FDAE1046EC
:108B7000194622E750EA410618BF52EA43067FF43D
:108B8000C5AE50EA41047FF40DAF52EA43057FF4CD
:108B9000EBAE12E74A0011D212F5001211D20DD538
:108BA0006FF47873B3EB62520ED44FEAC12343F0F3
:108BB000004343EA505323FA02F070474FF000009D
:108BC000704750EA013002D14FF0FF3070474FF04C
:108BD000000070474FEA4102B2F1E04324BFB3F511
:108BE000001CDCF1FE5C0DD901F0004C4FEAC00224
:108BF0004CEA5070B2F1004F40EB830008BF20F008
:108C00000100704711F0804F21D113F13872BCBFC1
:108C100001F00040704741F480114FEA5252C2F116
:108C20001802C2F1200C10FA0CF320FA02F018BF5F
:108C300040F001004FEAC1234FEAD32303FA0CFCB2
:108C400040EA0C0023FA02F34FEA4303CCE77FEA41
:108C5000625307D150EA01331EBF4FF0FE4040F48B
:108C60004000704701F0004040F0FE4040F400003A
:108C7000704700BF10B5054C13462CB10A4601469B
:108C80000220AFF3008010BD204610BD00000000A0
:108C900010B501390244904207D010F8013B11F899
:108CA000014FA342F7D0181B10BD002010BD10B516
:108CB000431E0A44914204D011F8014B03F8014FBE
:108CC000F8E710BD884210B501EB020301D8421E3F
:108CD0000BE09842FBD28118D21AD34204D013F889
:108CE000014D01F8014DF8E710BD994204D011F88B
:108CF000014B02F8014FF8E710BD024403469342CE
:108D000002D003F8011BFAE77047000038B5124B98
:108D10001C68A36B0546D3B91820FCF713F943F27E
:108D20000E33A06303804AF6CD33438041F23423EF
:108D300083804EF26D63C3804DF6EC63038105239F
:108D400043810B23838101220023C0E90423A36B09
:108D500000221D615A6138BD90E20320194B10B505
:108D60001C68A36BD3B91820FCF7ECF843F20E3360
:108D7000A06303804AF6CD33438041F234238380DD
:108D80004EF26D63C3804DF6EC630381052343818E
:108D90000B23838101220023C0E90423A16B0A4C29
:108DA0000B694869094A5C4302FB0040A3FB0223AC
:108DB0000132034443F10003C1E9042323F00040DE
:108DC00010BD00BF90E203202DF451582D7F954C2B
:108DD000C9B2034610F8012B1AB19142F9D11846D5
:108DE000704700290CBF18460020704710B5044694
:108DF000FFF7EEFF18B9204600F00CF8204410BD34
:108E000010F8012B11F8013B012A28BF9A42F7D034
:108E1000D01A7047034613F8012B002AFBD1181A09
:108E20000138704730B582B1451E013915F8013F50
:108E300011F8014FA34206D1EC431444E04201D0A3
:108E4000002BF3D11C46181B30BD104630BD10B5A9
:108E5000034601448B4204D01A785C1C0AB12346B5
:108E6000F8E7181A10BD38B503460D4641B1002485
:108E700029461846FFF7ACFF30B1431C0446F7E71C
:108E8000BDE83840FFF7A4BF204638BD2DE9F047C4
:108E900080464048D0F800900F463D4615F8014BFB
:108EA00009EB0400407800F0080000F0FF0608B16C
:108EB0002F46F2E72D2C03D1BD1C7C78012603E060
:108EC0002B2C04BF7C78BD1C13B1102B0AD15BE0A6
:108ED000302C57D1287800F0DF0058284DD16C781D
:108EE00010230235002E14BF4FF0004C6FF0004CE1
:108EF0000027BCFBF3FA384603FB1ACC09EB040E3F
:108F00009EF801E01EF0040F01D0303C0BE01EF093
:108F1000030E1BD0BEF1010F0CBF4FF0370E4FF008
:108F2000570ECEEB0404A34210DDB7F1FF3F0AD089
:108F3000504506D801D1644503DC03FB00400127FE
:108F400001E04FF0FF3715F8014BD7E77B1C0CD140
:108F5000002E4FF0220314BF4FF000406FF000408E
:108F6000C8F800302AB9BDE8F08706B1404272B1B6
:108F700007B1691E1160BDE8F0873024002BB1D124
:108F80000823AFE70A23ADE7302CA3D0AAE7BDE85A
:108F9000F08700BF2CE2032013460A460146024830
:108FA0000068FFF773BF00BF90E2032021400D006F
:108FB0005D400D0089400D008D400D000000000057
:108FC00000000000000000000000000000000000A1
:108FD000A9400D00CD400D00000000000000000081
:108FE000D9400D000D410D0089720D00CF400D00DC
:108FF0006D6F746F7220616E676C65207365747439
:1090000065643D25750043616E2774207475726E2A
:10901000206C6F6E67207468616E203130732C2075
:1090200073656E6465642076616C75653D257500B9
:1090300077696C6C207475726E2025006D6F746F8B
:109040007220616E676C65207475726E65643D2573
:1090500075005365747570204D6F746F7220726562
:109060006164202575004172676F6E0074656D70D4
:10907000006261740072656400677265656E00620B
:109080006C7565006D6F74746F72007361797961CE
:10909000630036453430303030342D423541332D85
:1090A000463339332D453041392D4535304532343D
:1090B0004443434139450036453430303030332D58
:1090C000423541332D463339332D453041392D4515
:1090D0003530453234444343413945003645343018
:1090E000303030322D423541332D463339332D4522
:1090F0003041392D453530453234444343413945BB
:109100000036453430303030312D423541332D4634
:109110003339332D453041392D45353045323444CE
:1091200043434139450063303066336438302D3273
:109130003730612D313165612D613834302D326524
:109140003732386365383831323500633030663352
:109150006332322D323730612D313165612D613806
:1091600034302D3265373238636538383132350066
:1091700063303066333938342D323730612D313138
:1091800065612D613834302D32653732386365388A
:1091900038313235000000000000000000000000FF
:1091A000AF4F0D00B54F0D00D15C0D00DF4F0D002E
:1091B000B14F0D000000000000000000A94F0D009D
:1091C000C34F0D00D95D0D00E34F0D00AB4F0D00F7
:1091D0000000000000000000A34F0D00D14F0D0063
:1091E0008F570D00E74F0D00A54F0D007BE327744F
:1091F0007BF815ACDD49A913000072F57769726937
:109200006E672E626C6500537461727420646973BA
:10921000636F766572696E672073657276696365E0
:10922000732E00537461727420646973636F766582
:1092300072696E67206368617261637465726973D5
:10924000746963732E005065657220646576696386
:1092500065206973206D697373696E6721004661CB
:10926000696C656420746F20617070656E64207035
:109270006565722043656E7472616C206465766901
:1092800063652E00436F6E6E65637465642062795A
:109290002043656E7472616C206465766963652E27
:1092A00000446973636F6E6E6563746564206279F0
:1092B0002072656D6F7465206465766963652E0044
:1092C00043616E6E6F7420616464206E65772070F8
:1092D000656572206465766963652E004E6577204A
:1092E0007065726970686572616C20697320636F64
:1092F0006E6E65637465642E004661696C656420FA
:10930000746F20617070656E6420646973636F763A
:109310006572656420636861726163746572697304
:109320007469632E004661696C656420746F206106
:109330007070656E6420646973636F7665726564CE
:1093400020736572766963652E004661696C656499
:1093500020746F20617070656E64206C6F63616C47
:109360002063686172616374657269737469632EE6
:10937000004475706C696361746564206368617230
:10938000616374657269737469632063616E6E6F83
:10939000742062652061646465642E000000000032
:1093A0000000000035610D002B610D0021610D00F2
:1093B00017610D000B610D00FF600D00F3600D00E3
:1093C000EB600D00E1600D00D7600D0081770D00AE
:1093D000000000000000000055610D009F610D00BD
:1093E00077610D0057610D007F610D0087610D00F1
:1093F0008F610D0097610D0000000000000000006B
:10940000E9610D00D9610D00DB610D00302E3000E7
:1094100066616C736500747275650025640025676C
:10942000006E756C6C00752530347800000000000B
:10943000000000006D660D0093660D0047660D008C
:10944000EB620D000000000000000000E96A0D0062
:10945000FD6A0D003D740D004F660D000000000018
:109460000000000069660D00AF660D00016A0D0086
:10947000BD660D00626175640053657269616C00C0
:1094800053657269616C3100747970650070617246
:10949000616D00636D6400696400686E64007374DC
:1094A000726D0066696C74006C766C00616464486F
:1094B000616E646C65720072656D6F766548616E91
:1094C000646C657200656E756D48616E646C657282
:1094D00073004A534F4E53747265616D4C6F674809
:1094E000616E646C6572006170700025303130759A
:1094F00020005D20002C200028293A2000205B005D
:10950000636F6465203D20002569006465746169AE
:109510006C73203D20000D0A0066006C6E00666EC4
:1095200000636F64650064657461696C006E6F6EE2
:109530006500747261636500696E666F00776172C1
:109540006E006572726F720070616E696300616CAB
:109550006C0000000000000000000000BD6A0D006B
:10956000D56A0D0089720D00CF400D00000000008B
:10957000000000006B660D00A1660D00B1710D00CA
:1095800051660D00000000000000000013760D0081
:1095900009760D00FF750D00F5750D00E9750D00DC
:1095A000DD750D00D1750D00C9750D00BF750D007D
:1095B000B5750D0081770D0000000000000000006F
:1095C00019770D0023770D002D770D0037770D00EB
:1095D00041770D004D770D0059770D0065770D002F
:1095E0006D770D0077770D0081770D00000000008A
:1095F000000000004B7B0D004D7B0D005A00252B19
:109600003033643A253032750025592D256D2D25CE
:10961000645425483A254D3A2553257A00617363F1
:1096200074696D650000000000000000000000008B
:10963000E17C0D00317D0D003F7D0D0061780D0056
:10964000F57C0D00177D0D00037D0D002B7D0D00B9
:10965000E37C0D00E77C0D0000000000000000002E
:10966000FD7D0D004D7E0D005B7E0D0061780D00CF
:10967000397E0D00FF7D0D00157E0D00477E0D002B
:109680002B7E0D00F97D0D000000000000000000A1
:10969000737F0D00697F0D005F7F0D00157F0D004A
:1096A000537F0D00477F0D003B7F0D00337F0D0082
:1096B000297F0D001F7F0D0081770D000000202005
:1096C0002020202020202028282828282020202072
:1096D0002020202020202020202020202020881032
:1096E0001010101010101010101010101010040492
:1096F0000404040404040404101010101010104199
:109700004141414141010101010101010101010109
:10971000010101010101010101101010101010429E
:1097200042424242420202020202020202020202D9
:1097300002020202020202020210101010200000B7
:109740000000000000000000000000000000000019
:109750000000000000000000000000000000000009
:1097600000000000000000000000000000000000F9
:1097700000000000000000000000000000000000E9
:1097800000000000000000000000000000000000D9
:1097900000000000000000000000000000000000C9
:1097A00000000000000000000000000000000000B9
:1097B00000000000000000000000000000000000A9
:1097C0000000000000000000000000000000000099
:1097D0000000000000000000000000000000000089
:1097E0000000000000000000000000000000000079
:1097F0000000000000000000000000000000000069
:109800000000000000000000000000000000000058
:109810000000000000000000000000000000000048
:10982000430000009D460D00B5600D0041610D0034
:1098300079720D00C9760D004D780D00F1790D009B
:10984000B57C0D00CD7C0D007D7F0D00ED800D0001
:1098500071810D0035820D00B9820D003D830D0030
:109860004B910D0001910D00DC900D0026910D0033
:10987000000014426400000070910D0092900D00F1
:10988000B7900D0064940D0074950D001D960D00A9
:10989000BD960D0000000000C0970D00E0970D0080
:1098A00000980D0000000000000000000000000013
:1098B0000000000020980D000000000000000000E3
:1098C0000000000000000000000000000000000098
:1098D0000000000000000000000000000000000088
:1098E0000000000000000000000000000000000078
:0898F0000000000030E203203B
:1098F800FFFFFFFF00000102030405060708090A2D
:109908000B0C0D0E0F101112131415161718191A27
:089918001B1C1D1E1F2028006E
:04992000785634122F
:04000003D0004020C9
:00000001FF
