:02000002D0002C
:1040000000400D00507F0D00000006000C0005016F
:0840100004017E050000000020
:0440180058780D00C7
:1040200009480A49884208B505D0094A824202D0A7
:10403000121A03F0A6FB0748074A0021121A03F0E0
:10404000C6FB014808BD00BFECE20320B07E0D00B6
:1040500064E3032064E30320F0E7032070B502F07B
:104060007BFC074C074BE41AA40800251E46A5421A
:1040700004D056F8253098470135F8E770BD00BFE9
:10408000B07E0D00707E0D0000F046B908B500F05E
:104090003FF8BDE8084002F02DBC00F0A3BD00F0E1
:1040A000A9BD00F0A7BD0078B0FA80F040097047C4
:1040B0000123037070470000012910B41BD10F4A7F
:1040C0000F4C1268934202D1037823700CE00D4A22
:1040D0001268934202D10378637005E00A4A1268BD
:1040E000934204BF0378A370A278617820785DF8CA
:1040F000044B02F089B95DF8044B7047ECE20320F1
:104100008CE30320F8E20320F4E203200000000027
:104110002DE9F041504C2368B3F5FA6F40F38D80E0
:104120004E484F4E4F4D00F07DFA4C4800F0D7FA04
:104130004A4886ED000A00F0C5FA85ED000A02F053
:1041400057FB494902F01CF802F052FB0746306861
:1041500002F05EFF41EC100B0221384602F030F90C
:1041600002F046FB4149424F02F00AF802F040FBE0
:10417000064628683F4D02F04BFF41EC100B022130
:10418000304602F01DF902F033FB3B493B4E02F092
:104190000AF8D5ED006A3A4BB2EE047AC6EE877A99
:1041A0009FED387AC3ED007A77EEC77AC7ED007AD3
:1041B00017EE900A02F02CFF25A3D3E9002302F0AA
:1041C0007BFF314B002202F0C5FD03F06DFA306039
:1041D00002F00EFB2D4901F0D3FF02F009FB8046EF
:1041E000386802F015FF41EC100B0221404602F046
:1041F000E7F802F0FDFA264901F0C2FF02F0F8FAF2
:104200000746306802F004FF41EC100B02213846EB
:1042100002F0D6F802F0ECFA1E4901F0B1FF02F00C
:10422000E7FA0646286802F0F3FE41EC100B022183
:10423000304602F0C8F8002304E0642000F0EAFCF5
:10424000236864332360BDE8F08100BFAFF30080D2
:10425000CDCCCCCCCCCCFC3F84E30320A0E303202A
:10426000A8E3032088E303206C780D0079780D0023
:104270006CE3032074E3032080780D0070E30320D7
:1042800078E30320008088430000404083780D00DD
:10429000A1780D00B6780D00F0B50E468FB0002164
:1042A00004460160416009AD194604A8174600F0B4
:1042B0002EFE1499284600F02AFE169B0293159BA9
:1042C00001932046009504AB3A46314601F0E0FAEE
:1042D00020460FB0F0BD30B589B0044603A815469E
:1042E00000F020FD03A800F065FD48B903A800F028
:1042F0007EFD08AA022322F8160D0321009506E090
:1043000003A800F076FD0095102302460721204601
:1043100000F020FE09B030BDF0B58548854E864FCF
:10432000B3B000F05CF90021112002F053FB02F061
:104330005FFA4FF4165102F04FFA112002F05BFBC6
:1043400007EE900A7D4B9FED7E7A7E48F8EEE77A85
:104350000025C3ED007A67EE877A9FED7B7A7B4B71
:1043600067EE877A4FF40872C3ED007AB4230193A5
:1043700010214FF41663009502F08BF8012002F033
:1043800033F8734B31681D700BA85D709D7000F0A1
:10439000BEFD41F6090110A800F0F5FC41F60F0141
:1043A00015A800F0F0FC42F61C211AA800F0EBFC66
:1043B00010A91FA829AC00F0B5FC1AA924A80595DE
:1043C000069500F0AFFC1FA9204600F0ABFC24AB23
:1043D000102205A802958DE830005E4901F058FAD8
:1043E00042F619211AA800F0CEFC15A91FA800F06A
:1043F00099FC1AA924A80795089500F093FC1FA919
:10440000204600F08FFC24AB07A802958DE8300011
:104410001022514901F03CFA504B32681B6802935C
:104420000092019704224E4909A8FFF735FF4D4B32
:1044300032681B6802930092019704224A491AA825
:10444000FFF72AFF494B32681B68029300924849E4
:10445000019704221FA8FFF71FFF00F08BFE05AA9B
:104460000146204601F0C6FA204600F038FF00F071
:1044700081FE07AA0146204601F0BCFA204600F062
:104480002EFF00F077FE09AA0146204601F0B2FA9D
:10449000204600F024FF00F06DFE1AAA01462046D7
:1044A00001F0A8FA204600F01AFF00F063FE1FAAF0
:1044B0000146204601F09EFA204600F010FF2046FB
:1044C00000F08FFD2B49204600F0A5FD0BA924A884
:1044D00000F028FC2A4624A92046FFF7FCFE10A97C
:1044E00024A800F01FFC2A4624A92046FFF7F3FE6B
:1044F00015A924A800F016FC2A4624A92046FFF797
:10450000EAFE00F037FE2A46214600F0A0FE1FA872
:1045100000F0E5FE1AA800F0E2FE09A800F0DFFEB8
:1045200007A800F0DCFE05A800F0D9FE33B0F0BD0E
:10453000A0E30320F0E20320B9400D0068E303206C
:1045400000404E45ACE303200000803A74E30320B2
:104550008CE30320C6780D00CB780D00ECE203203D
:10456000CF780D00F8E20320D3780D00F4E20320A9
:10457000D9780D00DE780D0010B500F057F90E4B1C
:104580000E4C00221A705A804FF6FF729A80032058
:1045900000F0ACFA0A49204602F00CF8094A0A4930
:1045A000204602F081FA094800F018F80848BDE8F2
:1045B000104001F05ABF00BF7CE3032090E30320CA
:1045C000907C0D0064E3032027650D00A0E3032029
:1045D000ACE303200368C9B29B681847704708B56D
:1045E00002F020FABDE8084001F0AEBB4FF6FF70C4
:1045F000013AD2B2FF2A14D011F8013B58400823E7
:1046000010F0010F4FEA600080B218BF80F4204024
:1046100003F1FF3318BF80F0010013F0FF03EFD167
:10462000E6E7704770B5054602F0FCF95C2101F041
:10463000A3FB02F0F7F901F0A6FB02F0F3F95C210D
:1046400001F09AFB02F0EEF90321FFF7C3FF02F03D
:10465000E9F90021FFF7BEFF02F0E4F90421FFF7BA
:10466000B9FF02F0DFF901F08EFB4FF4C86000F0F3
:10467000CDF802F0D7F908225C2101F074FB6C1E22
:104680006E1D02F0CFF903685B69984704F8010FCB
:10469000B442F6D102F0C6F903685B699847044654
:1046A00002F0C0F903685B6998470622064629466E
:1046B0002846FFF79BFF44EA0624A4B2231A584277
:1046C000584170BD8278C37803EB022300EE103AA4
:1046D000B8EEC00AF2EE047A80EE270A704702793B
:1046E000437903EB022300EE103AB8EEC00AF2EE73
:1046F000047A80EE270A704700F098B808B5024B9C
:104700001B689B68019308BD7802030008B5024B43
:104710001B681B6D019308BD7802030008B5024BAE
:104720001B689B6D019308BD7802030008B5024B1E
:104730001B681B6E019308BD7802030008B5034B8C
:104740001B68D3F89830019308BD0000780203007D
:1047500008B5034B1B68D3F8A830019308BD0000CF
:104760007802030008B5034B1B68D3F8EC300193C3
:1047700008BD00007802030008B5034B1B68D3F89E
:10478000F030019308BD00007802030008B5024B29
:104790001B689B68019308BD4802030008B5024BE3
:1047A0001B681B69019308BD4802030008B5024B52
:1047B0001B685B69019308BD4802030008B5024B02
:1047C0001B681B6B019308BD4802030008B5024B30
:1047D0001B685B6C019308BD4802030008B5024BDF
:1047E0001B68DB6C019308BD4802030008B5024B4F
:1047F0001B685B6D019308BD4802030008B5024BBE
:104800001B685B68019308BD1802030008B5024BE2
:104810001B68DB68019308BD1802030008B5024B52
:104820001B685B69019308BD1802030008B5024BC1
:104830001B681B68019308BD2C02030008B5024BDE
:104840001B685B68019308BD2C02030008B5024B8E
:104850001B689B68019308BD2C02030008B5024B3E
:104860001B681B6B019308BD2C02030008B5024BAB
:104870001B68DB68019308BD2802030008B5024BE2
:104880001B685B69019308BD2802030008B5024B51
:104890001B689B69019308BD2802030008B5024B01
:1048A0001B68DB69019308BD2802030008B5024BB1
:1048B0001B681B6A019308BD2802030008B5024B60
:1048C0001B685B6A019308BD2802030008B5024B10
:1048D0001B689B6A019308BD2802030008B5024BC0
:1048E0001B68DB6A019308BD2802030008B5024B70
:1048F0001B681B6B019308BD2802030008B5024B1F
:104900001B685B6B019308BD2802030008B5024BCE
:104910001B681B6C019308BD2802030008B5024BFD
:104920001B685B69019308BD6402030008B5024B74
:104930001B689B68019308BD6802030008B5024B21
:104940001B68DB68019308BD6802030008B5024BD1
:104950001B681B69019308BD2402030008B5024BC4
:104960001B685B69019308BD2402030008B5024B74
:104970001B68DB69019308BD3002030008B5024BD8
:104980001B681B6A019308BD3002030008B5024B87
:104990001B681B68019308BD3C02030008B5024B6D
:1049A0001B68DB68019308BD3C02030008B5024B9D
:1049B0001B681B69019308BD3C02030008B5024B4C
:1049C0001B685B69019308BD3C02030008B5024BFC
:1049D0001B689B69019308BD3C02030008B5024BAC
:1049E0001B68DB69019308BD3C02030008B5024B5C
:1049F0001B681B6A019308BD3C02030008B5024B0B
:104A00001B689B6A019308BD3C02030008B5024B7A
:104A10001B681B68019308BD4C02030008B5024BDC
:104A20001B685B68019308BD4C02030008B5024B8C
:104A30001B681B69019308BD4C02030008B5024BBB
:104A40001B685B69019308BD4C02030008B5024B6B
:104A50001B689B69019308BD4C02030008B5024B1B
:104A60001B68DB69019308BD4C02030008B5024BCB
:104A70001B681B6A019308BD4C02030008B5024B7A
:104A80001B685B68019308BD6002030008B5024B18
:104A90001B689B68019308BD6002030008B5024BC8
:104AA0001B68DB68019308BD6002030008B5024B78
:104AB0001B689B69019308BD6002030008B5024BA7
:104AC0001B68DB69019308BD6002030008B5024B57
:104AD0001B685B6B019308BD6002030008B5024BC5
:104AE0001B681B6D019308BD6002030008B5024BF3
:104AF0001B685B68019308BD2002030008B5024BE8
:104B00001B685B69019308BD2002030008B5034BD5
:104B10001B68D3F88830019308BD00002002030011
:104B200008B5034B1B68D3F89430019308BD00000F
:104B30002002030008B5024B1B68DB6B019308BD24
:104B40004402030008B5024B1B685B68019308BD73
:104B50004002030008B5024B1B689B68019308BD27
:104B60004002030008B5024B1B68DB68019308BDD7
:104B70004002030008B5024B1B681B69019308BD86
:104B80004002030008B5024B1B685B69019308BD36
:104B90004002030008B5024B1B689B69019308BDE6
:104BA0004002030008B5024B1B68DB69019308BD96
:104BB0004002030008B5024B1B681B6A019308BD45
:104BC0004002030008B5024B1B681B6B019308BD34
:104BD0004002030008B5024B1B685B6B019308BDE4
:104BE0004002030008B5024B1B681B68019308BD17
:104BF0001C02030008B5024B1B685B68019308BDEB
:104C00001C02030008B5024B1B689B68019308BD9A
:104C10001C0203000021FFF771BF7047002070479E
:104C200070470020704770470020704710B514216E
:104C3000044601F03EFF204610BD10B51421044685
:104C400001F037FF204610BD10B51421044601F0D5
:104C500030FF204610BDFFF722BAFFF720BAFFF75A
:104C60001EBA000008B50A20024A0021FFF72EFFF5
:104C700008BD00BF0D480D0010B5036804469B68D1
:104C80009847A368013BA3602BB923682046DB68E3
:104C9000BDE81040184710BDA0F13003DAB2092A70
:104CA00001D818467047A0F16103052B01D8573889
:104CB0007047A0F14103052B94BF37384FF0FF3008
:104CC0007047000010B500230370044B04461868B9
:104CD000FFF784FD01232370204610BDC8E30320A5
:104CE00010B5037804461BB1024B1868FFF77EFD30
:104CF000204610BDC8E3032008B582798B799A421B
:104D000006D1062202F02EFDB0FA80F0400908BD5F
:104D1000002008BD10B514220446002102F057FD02
:104D2000204610BD10B5034601F1140251F8044BA2
:104D300043F8044B9142F9D110BD70B50C460546BD
:104D40001646FFF7E7FF2CB910222146284602F04D
:104D50003EFD16E0012E09D12B4604F1100254F855
:104D6000041B43F8041B9442F9D108E06A1E0F2388
:104D7000E15C02F8011F013BDBB2FF2BF8D10123FC
:104D80002B74284670BD38B504460D46FFF7C2FFA8
:104D9000002325802374204638BD38B504461546C7
:104DA0001A46FFF7CAFF257301232D0A6573237482
:104DB000204638BD037C13F0FD0F14BF01200020F6
:104DC00070471FB50446FFF7F5FF08B9208809E0D2
:104DD00010220021684602F0FAFC102269462046A3
:104DE00002F0C0FC003018BF012004B010BD0088E4
:104DF0007047704710B5034601F1140251F8044B97
:104E000043F8044B9142F9D110BD10B551B103469E
:104E100001F1100251F8044B43F8044B9142F9D1CF
:104E20000123037410BD10B50446FFF7C3FF28B972
:104E3000088823881B1A5842584110BD102220466A
:104E400002F090FCB0FA80F0400910BDF7B50546BD
:104E50000E4619B9102202F0BAFC51E02421304666
:104E600002F0EEFC042802D0002710243BE030784A
:104E7000FFF712FF041E47DB7078FFF70DFF0028D5
:104E800042DB40EA04108DF80400B078FFF704FF1D
:104E9000041E39DBF078FFF7FFFE002834DB40EA20
:104EA00004109DF80430C0B240EA0320288000239B
:104EB00027E02CB3F05DFFF7EFFE030612D4013CB0
:104EC000000128552421304602F0BAFC0137874200
:104ED00008D2F05DFFF7E0FE40B20028A2BF2B5DD4
:104EE0001843285501372421304602F0A9FC874297
:104EF000DFD32C440023A54202D004F8013DFAE799
:104F000001232B7403B0F0BD00232B80CFE738B50D
:104F100004460D46FFF7FEFE20462946FFF796FFA2
:104F2000204638BDF0B58BB10024E51C8D420FD86A
:104F3000661C055D875D974205D12E44B14207D3BB
:104F40001C60681CF0BD01352C44EEE71846F0BD2E
:104F50000020F0BD2DE9F74304460E461D461746D6
:104F6000002A3AD00A4601AB016AFFF7DBFF9DF841
:104F70002830226A03BBF8B1961C2E44361A1F2E25
:104F80002BD8DDF8048008F10209C8EB0202121ADE
:104F900000EB080105EB090092B22144204402F025
:104FA000FBFB6B1C04F808302A46394604EB090069
:104FB00002F0E7FB266210E0901C2B181F2B0CD888
:104FC0006B1CA354224420623946567020442A4662
:104FD00002F0D7FB226A2A442262206A03B0BDE8AD
:104FE000F0831FB50446034600F11F02002003F8BA
:104FF000010B93424FF00001F9D104AA062302F8F5
:10500000013D01232162009120461946FFF7A2FFCE
:10501000204604B010BD37B50C4605461421204685
:1050200002F00EFC00230093224603460921284685
:10503000FFF790FF03B030BD73B50A460E4601ABD3
:10504000016A0446FFF76EFF054678B10198226AAF
:105050002918121A521B2144204402F092FB236AA1
:105060005D1B256231462046FFF7E6FF02B070BDAA
:1050700038B500254FF6FF73044643800E222946BB
:1050800005700571063002F0A2FB04F11400FFF771
:1050900041FE04F12800FFF73DFE044904F13C0005
:1050A00001F088FAE5642565204638BD907C0D0046
:1050B00010B58369C26903EBC2029342184606D059
:1050C000046824888C4203F10803F6D110BD002047
:1050D00010BD10B50A6852F8023F03605368436080
:1050E00010BD1FB502680B6812881B889A420C46D7
:1050F0000CD101466846FFF7ECFF214602A8FFF7F6
:10510000E8FF02A96846FFF7F7FD00B9002004B0E8
:1051100010BD000010B504463420FEF7BEFF014666
:1051200068B10023036043608360C360036143612F
:105130008361C361036243628362C362036321606C
:1051400019B90A4A0A20FFF7C1FC0020FFF7D6FA76
:1051500020B1064A00210A20FFF7B8FC002221688E
:105160000348FFF709FB204610BD00BF0D480D00A6
:105170003D550D0010B50A4C2368DB070ED42046C0
:10518000FEF791FF50B10748FFF7C4FF2046FEF736
:105190008FFF054A0549034801F086FC014810BD10
:1051A000C0E30320BCE3032064E3032053530D005A
:1051B00070B50368093B012B8AB004460E4619D826
:1051C000FFF7D8FFA1880068FFF772FF024658B9C1
:1051D00020230293084B0390009302AA0346074939
:1051E0003220FFF77BFC05E0F56C1DB1336DE16803
:1051F0002069A8470AB070BD267A0D00DC790D0041
:10520000084609B90A4601E0096A0022FFF77EBA9A
:1052100010B50C4611B90A46084606E001212046A1
:10522000FFF70AFF216A00222046BDE81040FFF781
:1052300075BA13B501A8FFF745FD0020FFF776FA10
:10524000044601A8FFF74CFD204602B010BD73B51F
:1052500005460C4601A81646FFF734FD21462846B0
:10526000FFF7CEFF002808DB31462846FFF7D0FFC6
:10527000002802DB2846FFF7DCFF044601A8FFF701
:105280002FFD204602B070BD0B68036013B15A6851
:1052900001325A60704710B551F8043B044640F89B
:1052A000043BFFF7F1FF23680BB9FFF7DBFC204657
:1052B00010BD10B551F8043B044640F8043BFFF71D
:1052C000E3FF204610BD10B50446006828B14368CE
:1052D000013B43600BB9FFF7CFFC204610BD10B572
:1052E00004460430FFF7EFFF204610BD70B5046898
:1052F0004368054604EBC306A64204D0201DFFF711
:10530000E2FF0834F8E72868FFF774FC284670BD10
:1053100070B504684368054604EBC306A64204D092
:10532000201DFFF7D0FF0834F8E72868FFF762FC7C
:10533000284670BD10B5046904F11800FFF7E8FFB6
:1053400004F10C00FFF7D2FF2046BDE81040FEF745
:10535000A6BEF8B504680746C4B1A569E36905EBC4
:10536000C306AE4204D0281DFFF7ADFF0835F8E7AD
:10537000A069FFF73FFC04F10C00FFF7C9FF2046CE
:10538000FFF7B4FF3421204601F093FB3846F8BD07
:1053900073B500250560456006462420FEF77DFEB6
:1053A000044678B103464FF6FF7223F8022BC0F88B
:1053B00002505D608572C572C56005614561856199
:1053C000C5610562002314200193FEF766FE0346C3
:1053D00028B1012242608260084A0260046102A88A
:1053E000726840F8042D73603460FFF76CFF336817
:1053F0000BB9FFF737FC304602B070BDB8790D002D
:10540000884270B515461AD9904219D2A1F1080602
:10541000511A0439151F44182B1F9E4225D0042C05
:1054200007D055F8043C44F8043C29462046FFF7D1
:105430002BFF2846FFF747FF083D083CECE714D058
:105440000C1D061D231F9D420FD0042E07D054F8BB
:10545000043C46F8043C21463046FFF715FF204641
:10546000FFF731FF08340836ECE770BD2DE9F04155
:10547000046843680546884604EBC307A74218D072
:1054800041462046FFF72DFE064608B90834F5E7E9
:105490008CB1201DFFF717FF2B686A6804F1080123
:1054A00003EBC2022046FFF7ABFF6B68013B6B606A
:1054B00002E0002600E026463046BDE8F081F7B560
:1054C000044651F8043B4768009301A8FFF7DCFE4F
:1054D0006668A3689E4214DB0136002E0BDDF000E7
:1054E000FFF780FB054618B394E8060001EBC20203
:1054F000FFF786FF00E000252068FFF77BFB2560B3
:10550000A6602668626806EBC70506EBC20229465C
:1055100005F10800FFF774FF35B1009B46F83730FE
:1055200001A9281DFFF7B0FE636801336360012500
:1055300001A8FFF7C8FE284603B0F0BD2DE9F041F1
:1055400004468EB003A80D46FFF7BCFB2368032B6F
:1055500002D0042B42D087E004A8FFF719FF049B78
:1055600022891A806268049952F8083FC1F8023013
:105570005368C1F8063007A8049B069305A9FFF7F6
:1055800083FE06A905F11800FFF799FF044607A856
:10559000FFF799FE2023069374B9364B009306AAB1
:1055A0002346354907943220FFF798FA049B214699
:1055B0001888FFF7C3F80DE0304A0092002306AACE
:1055C0002D4907930120FFF789FA6B6A13B1E96A45
:1055D00004A8984705A8FFF776FE45E021892846EC
:1055E000FFF766FD074600283ED00468A369E1691D
:1055F0004FF6FF72228003EBC101994203D053F8AA
:10560000080B4280F9E7E668236906EBC308B0455A
:1056100004D0301DFFF757FE0836F8E7002323615A
:10562000A669E36906EBC308B04504D0301DFFF757
:105630004AFE0836F8E70023E361A372E372AB6A1F
:1056400013B1296B3846984720230D4A06930092E0
:10565000002309490793012006AAFFF73FFA3946BC
:1056600005F11800FFF702FF03A8FFF739FB0EB0A2
:10567000BDE8F0813E7A0D00DC790D00647A0D0002
:10568000817A0D008842F8B506460C46154614D9B5
:10569000904213D2A2F108056C1AA1F10807044444
:1056A000AF4218D01CB129462046FFF702FE281D44
:1056B000FFF709FE083D083CF2E70CD0AC420AD0E7
:1056C0001EB121463046FFF7F4FD201DFFF7FBFD1C
:1056D00008340836F2E7F8BD70B50E1E05460BDD3E
:1056E000F000FFF77FFA044670B195E8060001EB81
:1056F000C202FFF7C7FF00E000242868FFF77AFA2C
:105700002C60AE60012070BD70BD73B50446456865
:105710006846FFF7CEFD6168A368994205DB013159
:105720002046FFF7D9FF064698B12368626803EB6D
:10573000C50503EBC202294605F10800FFF7A2FFE9
:105740001DB169462846FFF7B4FD63680133636005
:10575000012601A8FFF7B7FD304602B070BD8842B0
:10576000F8B506460C46154614D9904213D2A2F15C
:1057700008056C1AA1F108070444AF4218D01CB107
:1057800029462046FFF787FD281DFFF79CFD083DB1
:10579000083CF2E70CD0AC420AD01EB1214630469C
:1057A000FFF779FD201DFFF78EFD08340836F2E77C
:1057B000F8BD70B50E1E05460BDDF000FFF712FABE
:1057C000044670B195E8060001EBC202FFF7C7FF7F
:1057D00000E000242868FFF70DFA2C60AE6001207D
:1057E00070BD70BD73B5044645686846FFF753FD4C
:1057F0006168A368994205DB01312046FFF7D9FFB4
:10580000064698B12368626803EBC50503EBC20244
:10581000294605F10800FFF7A2FF1DB16946284699
:10582000FFF739FD636801336360012601A8FFF7C4
:105830004AFD304602B070BD10B50446406808B15C
:10584000FEF72DFC204610BD07B503690C308DE82E
:10585000090003F13C0000F066FE6846FFF7ECFF2C
:1058600003B05DF804FB000038B500230446036074
:1058700014200D46FEF711FC28B10123436083601C
:10588000024B036005612060204638BD80790D0021
:105890002DE9F04188B005461E46542000230F46EE
:1058A000904604930593FEF7F8FBCDF818D0044614
:1058B0000790B0B1FFF7DCFB394604F13C0084F8F7
:1058C000048000F08AFE0F9BE3643146109B236541
:1058D00004F11400FFF78EFA0E9904F12800FFF787
:1058E00089FA2146002601AB02AA03A80796FFF712
:1058F000BBFF039B059A039203A805930494FFF74B
:10590000E2FC06A8FFF798FF049B2968059A2B6024
:1059100008A86B6806916A6040F8043D05960496F5
:10592000FFF7D1FC05A8FFF7CEFC296819B9034A97
:105930000A20FFF7CBF808B0BDE8F0810D480D0054
:1059400010B50446406808B1FEF7A9FB204610BD1B
:1059500007B503690C308DE809006846FFF7F0FFD2
:1059600003B05DF804FB000038B500230446036073
:1059700014200D46FEF791FB28B10123436083609C
:10598000024B036005612060204638BD9C790D0004
:10599000F0B5002687B006604660044618200F4622
:1059A000FEF77BFBCDF810D00546059038B1FFF728
:1059B000B1F939462846AE82EE82FFF71BFA002382
:1059C0002946059302AA01AB03A8FFF7CDFF039B6D
:1059D00062682560636003A80392FFF774FC04A863
:1059E000FFF7AEFF23680BB9FFF73CF9204607B07D
:1059F000F0BD00002DE9F04F17469FB0804605A886
:105A00000E46FFF75FF93C682379002B00F0F38026
:105A10003368DD681B6905EBC303039304F1140AC3
:105A200004F1280B039BAB4223D0D5F800905046DD
:105A300009F11401FFF7F7F9002800F0E18009F1FE
:105A400028015846FFF7EFF9002800F0D9802368B5
:105A500023F47F41D9F8003023F47F43994240F08A
:105A6000CF8020236B4A139300230092149313AA30
:105A7000BDE004F128052846FFF7A3F918B96649E7
:105A80002846FFF7C2F93368D3F800905B6809EB4A
:105A9000C30AD145294608D0D9F80000FFF7C3F959
:105AA000002837D109F10809F3E706A8FFF770FFCE
:105AB00013AA2B4604F1380C964618685968154607
:105AC00003C5083363452A46F7D118682860069A4B
:105AD0000023143271460120FEF73AFE00287ED1E1
:105AE000356806A90BA8FFF7E4FB28460BA9FFF7CA
:105AF0000CFE05460CA8FFF7E6FB002D6FD03268C0
:105B00005368126803F10053013B07A802EBC30975
:105B1000FFF7D9FB04F114052846FFF752F968B9DD
:105B20003E4B3D491A88013292B21A8013A80123D4
:105B3000FFF733F913A92846FFF75CF94FF02C0A59
:105B40005246002113A801F042FE012306AAADF837
:105B50004C30ADF84EA02B4604F1240C15461868C5
:105B600059689646AEE80300083363457246F6D19D
:105B70001868CEF800000FCD0DF1580EAEE80F00FA
:105B80002B68CEF8003023798DF85030D9F80030EA
:105B90009B8AADF86C30E36B15930022204B1C936D
:105BA000A11D13A81D94FEF7DDFD20BB012323706A
:105BB000346839460C340BA8FFF76DFB20460BA95F
:105BC000FFF710FE04460CA8FFF77DFB9CB92023CD
:105BD0000B93144B00930C9423460BAA07E0394611
:105BE0004046FFF758FB07A8FFF76DFB0AE00E4998
:105BF0003220FEF773FF39464046FFF74CFB01E0C9
:105C000008350FE705A8FFF76BF840461FB0BDE861
:105C1000F08F00BF517B0D00CC790D00C4E3032051
:105C2000B1510D002A7B0D00DC790D0002480023E4
:105C30000360FEF7CBBD00BFC8E3032010B5836847
:105C4000044613B1032201469847204610BD0022A6
:105C500011464068FEF7AEBF002211464068FEF7CD
:105C6000B9BF00224068FEF7ADBF002281F00101FC
:105C70004068FEF797BF00231A4619464068FEF7B2
:105C800089BF00231A4619464068FEF77BBF0022F1
:105C900011464068FEF76EBF002211464068FEF7CD
:105CA00059BF002202214068FEF75CBF00231A465C
:105CB0004068FEF747BF0000024B03225A60024AC9
:105CC0001A607047CCE30320847B0D007047F8B561
:105CD000064615460C468F18BC4206D0336814F8A9
:105CE000011B9B6830469847F6E72846F8BD00221E
:105CF000007CFEF7DBBD0021007CFEF7DFBD00214C
:105D0000007CFEF7E3BD0021007CFEF7E7BD00212B
:105D1000007CFEF7EBBD10B51421044600F0C9FE6F
:105D2000204610BD10B504464FF47A730846A360B0
:105D30000021044B207461602360FEF7E7FD2046DC
:105D400010BD00BFB87B0D0000231A461946007C29
:105D5000FEF78CBD13B50024007C0094FEF78EFD89
:105D6000C0B202B010BD0123D2B2C9B2FFF7F2BF78
:105D70000022007CFEF78ABDC9B2FFF7F9BF0022FE
:105D8000007CFEF78BBD0121FFF7F9BF0021007CED
:105D9000FEF7B4BD704710B51821044600F089FE27
:105DA000204610BDF0B5037D062B8DB00E4600F1E8
:105DB00004074FF0000402D000F1080518E00CAD14
:105DC000394605F8304D2F232A460A20FEF7A6FD56
:105DD000284601F02DFD33680246DB68294630462F
:105DE00098470FE024B12E21304600F0CDF904444D
:105DF00015F8011D0A22304600F00CFABD42044499
:105E0000F0D120460DB0F0BD10B5054B044611226F
:105E100040F8043B002101F0DAFC204610BD00BF31
:105E2000E07B0D000346074A10B543F8042B01F14F
:105E3000100251F8044B43F8044B9142F9D10A780F
:105E40001A7010BDE07B0D0010B59DF8084044EAC3
:105E5000032343EA024242EA0161042341600375DD
:105E600010BD37B50D788B784A78C97800912946EE
:105E7000FFF7EAFF03B030BD014B024A1A607047DA
:105E8000D4E303205F7C0D00002211464068FEF73A
:105E900091BE002211464068FEF79CBE0022406879
:105EA000FEF790BE002281F001014068FEF77ABE45
:105EB00000231A4601214068FEF76CBE00231A46F3
:105EC00019464068FEF75EBE002211464068FEF7A4
:105ED00051BE002211464068FEF73CBE002202215E
:105EE0004068FEF73FBE00231A464068FEF72ABE10
:105EF00038B5054688B104684CB1A3681BB10322CC
:105F00002146204698471021204600F0D2FD284621
:105F10001421BDE8384000F0CCBD38BD10B1036895
:105F20005B681847704710B503680446BBB15868F2
:105F3000FEF72CFC78B923685A7C12B95868FEF732
:105F40002DFC23685868FEF731FC2068002323608D
:105F500028B1FFF7CDFF206808B1FFF7C9FF204641
:105F600010BD000038B50C4B03600446D0F8CC01DE
:105F700008B1FEF796F8D4F8C45135B12846FFF7BA
:105F8000D2FF0421284600F094FDA06808B1FFF775
:105F9000C5FF204638BD00BFD07C0D0038B50E4C83
:105FA0000E4B23600025022304F5E4706360A560B6
:105FB000C4F8C451C4F8C851FEF708FC084BC4F833
:105FC000CC5184F8D05123602046064A0649BDE8EA
:105FD000384000F069BD00BFD8E30320047D0D0008
:105FE000D07C0D0064E30320655F0D0000231A469A
:105FF0004068FEF7A7BD002202214068FEF7B2BD4F
:10600000002211464068FEF7A5BD002211464068F7
:10601000FEF7B0BD00231A4619464068FEF7B2BD30
:1060200000231A4619464068FEF7B4BD002281F0ED
:1060300001014068FEF7B6BD00224068FEF7C2BD10
:10604000002211464068FEF7C5BD00221146406897
:10605000FEF7B0BD2DE9F043002495B016460D467D
:106060000746FFF7D1FE214620220CA8009401F03C
:10607000AEFB40230C9321466B460CAA3046FEF73C
:106080005DFC0446002844D1024601216868FEF701
:1060900071FD0221804622466868FEF76BFD009E76
:1060A00081462146002E34D0002932D17368022B5C
:1060B00002D00A2B09D02AE0B8F1000F27D071696D
:1060C00038460431FFF7CDFE20E0B9F1000F1ED0B5
:1060D0007469112201A801F07AFB06238DF81430AF
:1060E00001AD04F108031834186859682A4603C240
:1060F0000833A3421546F7D101A906A807ADFFF75B
:1061000091FE0FCD3C1D0FC42B6823700121F66951
:10611000C8E70098FEF70AFC384615B0BDE8F083E2
:10612000024B034A1A6000225A607047ACE5032014
:10613000047D0D00F8B506460D468F180024BD42BB
:106140000CD0336815F8011B9B683046984700282F
:1061500001DB0444F3E7002C08BF04462046F8BDE9
:1061600070B505460C46084649B101F061FB2B6845
:10617000024621462846DB68BDE87040184770BDDE
:1061800008B5FFF7EDFF08BD03689B68184738B5F1
:106190000D210546FFF7F8FF0A2104462846FFF7C0
:1061A000F3FF204438BD38B50546FFF7D9FF044654
:1061B0002846FFF7ECFF204438BD30B58BB00B46C6
:1061C00000218DF82410012A98BF0A220DF1230422
:1061D000B3FBF2F505FB123303F0FF03092B94BF69
:1061E00030333733DBB2214604F801392B46002D1A
:1061F000EED1FFF7B5FF0BB030BD10B42AB903687C
:106200005DF8044B9B68C9B21847D2B25DF8044BE5
:10621000FFF7D3BFFFF7F1BF2DE9F04107460E4668
:1062200015462AB90368C9B29B68BDE8F041184712
:106230000A2A02D1002901DA04E0D2B2BDE8F04115
:10624000FFF7BBBF2D21FFF79FFF2A46044671428F
:106250003846FFF7B2FF2044BDE8F0812DE9F04752
:1062600057EC106B82460D4610EE102A3B4610EE9E
:10627000100A394601F0BAF908B1484912E027F08E
:1062800000494FF0FF32464B3046494601F0AEF927
:1062900068B94FF0FF32424B3046494601F088F969
:1062A00028B940495046FFF75BFFBDE8F0874FF043
:1062B00060423D4B3046394601F08EF908B13B490A
:1062C000F0E74FF060423A4B3046394601F066F94C
:1062D0000028F4D1002200233046394601F05EF94F
:1062E00040B12D215046FFF74FFF07F10043044610
:1062F0001F4600E004462F494FF0000800205FFAD7
:1063000088F39D4206D900222B4B00F0FFFF08F1D5
:106310000108F4E732463B4600F01CFD0F460646F6
:1063200001F0A2F90A22014680465046FFF745FFD8
:1063300004447DB3404600F049FE02460B46304619
:10634000394600F005FD06460F4650461B49FFF74B
:1063500007FF0444184B00223046394600F0ACFEDB
:106360000F46064601F058F90A220146804650467B
:10637000FFF752FF0444404600F038FE02460B4649
:106380003046394600F0E4FC013D15F0FF050646B5
:106390000F46DFD12046BDE8F08700BF307D0D00FD
:1063A000FFFFEF7F387D0D00FFFFEF41347D0D00D3
:1063B000FFFFEFC10000E03F00002440037B0D0021
:1063C000C9B2FFF74BBF38B5C9B20546FFF746FF64
:1063D00004462846FFF7DBFE204438BD10B50446CE
:1063E000FFF72CFC204610BD10B50446FEF75EFBFF
:1063F000844208D01CB1BDE81040FEF747BBBDE8A1
:106400001040FEF74BBB10BD70B505460E46144656
:10641000FEF74CFB50B144EA062040EA0540FEF787
:106420002DFBE720BDE87040FEF748BB70BD0000C3
:106430000348044A04490023836000F035BB00BFD1
:10644000B4E5032064E30320DD630D00B4224FF6BE
:10645000FF7302814FF408720380428000234FF4DF
:106460001662C3808280C360704708B5FFF7EEFFF5
:1064700008BD10B50446B0F90000431C07D080B237
:10648000FEF76CFA2046FFF7E1FF012010BD002067
:1064900010BD2DE9F0410D460446022128469046E4
:1064A0001F46FEF7CBF9022801D0002619E0284646
:1064B00000F06CFA06460028F7D0B4F9003001333A
:1064C00002D02046FFF7D5FFBDF91830E380BDF9B3
:1064D0001C302580A4F80280A78023812846FEF77F
:1064E00035FA3046BDE8F081704710B510210446FA
:1064F00000F0DFFA204610BD70B5084B036004467B
:1065000000250E4640F80C5FFEF758F9304626711C
:10651000FEF72CFAA560204670BD00BF447D0D003B
:106520000079FEF72BBA10B504460068FEF762FB4F
:10653000204610BD10B50446006808B1FEF75AFBAE
:1065400000232360A360636010BD38B504460D4688
:1065500000680131FEF756FB10B184E821000120EC
:1065600038BD10B50368044613B143688B4207D2A7
:106570002046FFF7EAFF20B1A3680BB92268137029
:10658000012010BD70B50E46114604461546FFF7B2
:10659000E8FF18B92046FFF7CDFF09E02A4631464B
:1065A000A560206801F0EDF82268A3680021D154AD
:1065B000204670BD38B50023044603604360836005
:1065C00003730D4639B1084601F032F929460246F7
:1065D0002046FFF7D7FF204638BD38B505460C46A4
:1065E00041B1084601F024F9214602462846FFF74A
:1065F000C9FF01E0FFF79EFF284638BD044B00208D
:106600004FF6FF72187058809A80FEF76FBA00BF7D
:10661000C4E50320024B1A68024B1A60704700BFA2
:10662000FCE20320CCE5032070474174704708B5B5
:10663000007CFEF7E3F920EAE07008BD08B5007CB5
:10664000FEF7B4F920EAE07008BD08B5007CFEF75B
:10665000BDF930EA200028BF4FF0FF3008BD08B573
:10666000007CFEF7ABF930EA200028BF4FF0FF3086
:1066700008BD007CFEF7B2B910B51421044600F045
:1066800018FA204610BD70B5457C04460E4625B963
:10669000007CFEF7B3F9002805DD3146207CBDE81B
:1066A0007040FEF77BB9284670BD000010B5044667
:1066B00008461146002262604FF47A72A260054AD1
:1066C00022600122207462741A46FEF75FF92046A8
:1066D00010BD00BF807D0D00007CFEF787B9000073
:1066E00038B50C4D296811F0010411D12846FDF789
:1066F000DAFC68B1084A094B09482146FFF7D6FF82
:106700002846FDF7D5FC074A0749054800F0CCF9B3
:10671000034838BD68E603206CE60320E4E5032067
:10672000D0E5032064E3032029660D00417470471F
:10673000704708B50021007CFEF788F930EA200098
:1067400028BF4FF0FF3008BD08B50121007CFEF7DF
:106750007DF930EA200028BF4FF0FF3008BD08B5B2
:10676000007CFEF76BF920EAE07008BD08B5007CFC
:10677000FEF75CF920EAE07008BD007CFEF776B910
:1067800010B51421044600F094F9204610BD38B528
:106790000446007C0D46FEF751F9002801DC607CC0
:1067A00028B12946207CFEF759F920EAE07038BD6F
:1067B00010B50446002363604FF47A73A360054B61
:1067C000236001230846217463741146FEF71EF905
:1067D000204610BDB07D0D000022007CFEF71EB9E2
:1067E00010B514220446002100F0F1FF204610BD30
:1067F00030B50E4D87B001A8FFF7F2FF296811F000
:10680000010410D12846FDF74EFC60B101AA2146D3
:106810000748FFF7CDFF2846FDF74AFC054A064921
:10682000034800F041F9024807B030BDF0E603200C
:10683000F4E6032064E3032031670D0000221146D3
:106840004068FEF797B9002211464068FEF7B2B9DA
:10685000002211464068FEF7BDB900224068FEF7ED
:10686000B1B9002281F001014068FEF79BB9002315
:106870001A4619464068FEF78DB900231A46194694
:106880004068FEF77FB9002211464068FEF762B902
:10689000002202214068FEF765B900231A464068CD
:1068A000FEF750B9024B04225A60024A1A60704740
:1068B00008E70320E07D0D0008B50C4B33B1FFF76E
:1068C00097FF03681B699847002809DC084B63B1F0
:1068D000FFF706FF03681B699847002803DC08BD23
:1068E000AFF30080F2E7AFF3008008BD00000000C6
:1068F0000000000008B5FFF7DFFFFDF78FFF014B39
:10690000186008BD14E7032007B5002300931A465A
:106910006FF07701FEF704F903B05DF804FB0000A7
:1069200007B543880A2B08D0502B09D1094B1B68A7
:106930003BB103B05DF804EB1847FFF7E5FF06E055
:10694000002300931A466FF07701FEF7E9F803B0D1
:106950005DF804FB10E7032010B5FDF74FFF044678
:1069600000F03EFF074B13B12046AFF3008000213B
:106970000448FEF7DFF800210348BDE81040FEF7A9
:10698000C5B800BF0000000021690D0010B5044625
:106990000F48FFF7C5FD28B1A4F10B03022B01D866
:1069A000002010BD00F03EF8FFF7F0F908B1012C0F
:1069B000F6D9FFF795FEFFF78FFE18B1A4F1090392
:1069C000012BEDD9232C8CBF0020012010BD00BF6E
:1069D00030E70320232838B504460D460AD8FF299E
:1069E00008D0FFF7D3FF28B129462046BDE838403C
:1069F000FDF72CBF38BD0D2810B504469CBF0E34E2
:106A0000A4B22046FFF7C2FF50B103212046FDF794
:106A100015FF032804D12046BDE81040FDF71EBF36
:106A2000002010BD38B50B4D296811F001040FD1BD
:106A30002846FDF738FB58B121460748FFF772F9A1
:106A40002846FDF735FB054A0549034800F02CF8B8
:106A5000014838BD18E703201CE7032064E3032046
:106A6000CD5C0D0070B50C4C0C4E0D4D0021204638
:106A7000FFF742FD20460B4C3246294600F014F841
:106A800001212046FFF738FD324629462046BDE861
:106A9000704000F009B800BF30E7032064E3032032
:106AA000E9640D0040E703200B460146184600F05C
:106AB0004BBEFDF7F4BA0000244B1A68D0075CBF48
:106AC00001221A60224B1A68D1075CBF01221A60AA
:106AD000204B1A68D2075CBF01221A601E4B1A684D
:106AE000D0075CBF01221A601C4B1A68D1075CBF3B
:106AF00001221A601A4B1A68D2075CBF01221A6081
:106B0000184B1A68D0075CBF01221A60164B1A682E
:106B1000D1075CBF01221A60144B1A68D2075CBF10
:106B200001221A60124B1A68D0075CBF01221A605A
:106B3000104B1A68D1075CBF01221A600E4B1A680D
:106B4000D2075CBF01221A60704700BF7CE70320B8
:106B500078E7032074E7032070E703206CE7032045
:106B600068E7032064E7032060E703205CE7032075
:106B700058E7032054E7032050E70320184B1A6816
:106B8000D1075CBF01221A60164B1A68D2075CBF9E
:106B900001221A60144B1A68D0075CBF01221A60E8
:106BA000124B1A68D1075CBF01221A60104B1A6899
:106BB000D2075CBF01221A600E4B1A68D0075CBF77
:106BC00001221A600C4B1A68D1075CBF01221A60BF
:106BD0000A4B1A68D2075CBF01221A60704700BFD7
:106BE0009CE7032098E7032094E7032090E7032025
:106BF0008CE7032088E7032084E7032080E7032055
:106C0000184B1A68D1075CBF01221A60164B1A682C
:106C1000D2075CBF01221A60144B1A68D0075CBF10
:106C200001221A60124B1A68D1075CBF01221A6058
:106C3000104B1A68D2075CBF01221A600E4B1A680B
:106C4000D0075CBF01221A600C4B1A68D1075CBFE9
:106C500001221A600A4B1A68D2075CBF01221A602F
:106C6000704700BFBCE70320B8E70320B4E7032068
:106C7000B0E70320ACE70320A8E70320A4E7032044
:106C8000A0E70320244B1A68D0075CBF01221A60DA
:106C9000224B1A68D1075CBF01221A60204B1A6888
:106CA000D2075CBF01221A601E4B1A68D0075CBF76
:106CB00001221A601C4B1A68D1075CBF01221A60BE
:106CC0001A4B1A68D2075CBF01221A60184B1A6867
:106CD000D0075CBF01221A60164B1A68D1075CBF4F
:106CE00001221A60144B1A68D2075CBF01221A6095
:106CF000124B1A68D0075CBF01221A60104B1A6849
:106D0000D1075CBF01221A600E4B1A68D2075CBF24
:106D100001221A60704700BFECE70320E8E7032078
:106D2000E4E70320E0E70320DCE70320D8E70320C3
:106D3000D4E70320D0E70320CCE70320C8E70320F3
:106D4000C4E70320C0E7032081F0004102E000BF58
:106D500083F0004330B54FEA41044FEA430594EA1B
:106D6000050F08BF90EA020F1FBF54EA000C55EA56
:106D7000020C7FEA645C7FEA655C00F0E2804FEA27
:106D80005454D4EB5555B8BF6D420CDD2C4480EA09
:106D9000020281EA030382EA000083EA010180EA39
:106DA000020281EA0303362D88BF30BD11F0004F87
:106DB0004FEA01314FF4801C4CEA113102D04042BD
:106DC00061EB410113F0004F4FEA03334CEA1333F8
:106DD00002D0524263EB430394EA050F00F0A78010
:106DE000A4F10104D5F1200E0DDB02FA0EFC22FA0B
:106DF00005F2801841F1000103FA0EF2801843FAFF
:106E000005F359410EE0A5F120050EF1200E012AEF
:106E100003FA0EFC28BF4CF0020C43FA05F3C0182D
:106E200051EBE37101F0004507D54FF0000EDCF1A6
:106E3000000C7EEB00006EEB0101B1F5801F1BD34F
:106E4000B1F5001F0CD349085FEA30004FEA3C0C53
:106E500004F101044FEA445212F5800F80F09A8049
:106E6000BCF1004F08BF5FEA500C50F1000041EB4D
:106E7000045141EA050130BD5FEA4C0C404141EB51
:106E8000010111F4801FA4F10104E9D191F0000F78
:106E900004BF01460020B1FA81F308BF2033A3F1FB
:106EA0000B03B3F120020CDA0C3208DD02F1140CF2
:106EB000C2F10C0201FA0CF021FA02F10CE002F12D
:106EC0001402D8BFC2F1200C01FA02F120FA0CFC26
:106ED000DCBF41EA0C019040E41AA2BF01EB04516F
:106EE000294330BD6FEA04041F3C1CDA0C340EDC6D
:106EF00004F11404C4F1200220FA04F001FA02F3B0
:106F000040EA030021FA04F345EA030130BDC4F16D
:106F10000C04C4F1200220FA02F001FA04F340EA62
:106F20000300294630BD21FA04F0294630BD94F013
:106F3000000F83F4801306BF81F480110134013DFA
:106F40004EE77FEA645C18BF7FEA655C29D094EA6B
:106F5000050F08BF90EA020F05D054EA000C04BFE9
:106F60001946104630BD91EA030F1EBF00210020D4
:106F700030BD5FEA545C05D14000494128BF41F073
:106F8000004130BD14F580043CBF01F5801130BDD7
:106F900001F0004545F0FE4141F470014FF0000062
:106FA00030BD7FEA645C1ABF194610467FEA655C13
:106FB0001CBF0B46024650EA013406BF52EA0335B5
:106FC00091EA030F41F4002130BD00BF90F0000FA3
:106FD00004BF0021704730B54FF4806404F13204DF
:106FE0004FF000054FF0000150E700BF90F0000F98
:106FF00004BF0021704730B54FF4806404F13204BF
:1070000010F0004548BF40424FF000013EE700BF8E
:1070100042004FEAE2014FEA31014FEA02701FBF1E
:1070200012F07F4393F07F4F81F06051704792F0F0
:10703000000F14BF93F07F4F704730B54FF460746A
:1070400001F0004521F0004120E700BF50EA0102B5
:1070500008BF704730B54FF000050AE050EA010262
:1070600008BF704730B511F0004502D5404261EBD2
:1070700041014FF4806404F132045FEA915C3FF413
:10708000DCAE4FF003025FEADC0C18BF03325FEAAC
:10709000DC0C18BF033202EBDC02C2F1200300FA61
:1070A00003FC20FA02F001FA03FE40EA0E0021FA86
:1070B00002F11444C1E600BF70B54FF0FF0C4CF470
:1070C000E06C1CEA11541DBF1CEA135594EA0C0F26
:1070D00095EA0C0F00F0DEF82C4481EA030621EA61
:1070E0004C5123EA4C5350EA013518BF52EA03359C
:1070F00041F4801143F4801338D0A0FB02CE4FF04E
:107100000005E1FB02E506F00042E0FB03E54FF07D
:107110000006E1FB03569CF0000F18BF4EF0010E75
:10712000A4F1FF04B6F5007F64F5407404D25FEA71
:107130004E0E6D4146EB060642EAC62141EA555124
:107140004FEAC52040EA5E504FEACE2EB4F1FD0C66
:1071500088BFBCF5E06F1ED8BEF1004F08BF5FEAE4
:10716000500E50F1000041EB045170BD06F0004696
:1071700046EA010140EA020081EA0301B4EB5C0443
:10718000C2BFD4EB0C0541EA045170BD41F480113B
:107190004FF0000E013C00F3AB8014F1360FDEBF60
:1071A000002001F0004170BDC4F10004203C35DA3C
:1071B0000C341BDC04F11404C4F1200500FA05F3BF
:1071C00020FA04F001FA05F240EA020001F0004260
:1071D00021F0004110EBD37021FA04F642EB0601D6
:1071E0005EEA430E08BF20EAD37070BDC4F10C0400
:1071F000C4F1200500FA04F320FA05F001FA04F2C4
:1072000040EA020001F0004110EBD37041F10001AF
:107210005EEA430E08BF20EAD37070BDC4F12005BA
:1072200000FA05F24EEA020E20FA04F301FA05F222
:1072300043EA020321FA04F001F0004121FA04F2CA
:1072400020EA020000EBD3705EEA430E08BF20EA9A
:10725000D37070BD94F0000F0FD101F000464000D4
:1072600041EB010111F4801F08BF013CF7D041EA56
:10727000060195F0000F18BF704703F0004652005A
:1072800043EB030313F4801F08BF013DF7D043EA2B
:107290000603704794EA0C0F0CEA135518BF95EAE1
:1072A0000C0F0CD050EA410618BF52EA4306D1D168
:1072B00081EA030101F000414FF0000070BD50EA87
:1072C000410606BF1046194652EA430619D094EA11
:1072D0000C0F02D150EA013613D195EA0C0F05D1FB
:1072E00052EA03361CBF104619460AD181EA03014F
:1072F00001F0004141F0FE4141F470014FF0000007
:1073000070BD41F0FE4141F4780170BD70B54FF0A1
:10731000FF0C4CF4E06C1CEA11541DBF1CEA135521
:1073200094EA0C0F95EA0C0F00F0A7F8A4EB050403
:1073300081EA030E52EA03354FEA013100F08880FA
:107340004FEA03334FF0805545EA131343EA1263C3
:107350004FEA022245EA111545EA10654FEA002678
:107360000EF000419D4208BF964244F1FD0404F531
:10737000407402D25B084FEA3202B61A65EB03058D
:107380005B084FEA32024FF480104FF4002CB6EB4A
:10739000020E75EB030E22BFB61A754640EA0C00CA
:1073A0005B084FEA3202B6EB020E75EB030E22BF0A
:1073B000B61A754640EA5C005B084FEA3202B6EB4B
:1073C000020E75EB030E22BFB61A754640EA9C000A
:1073D0005B084FEA3202B6EB020E75EB030E22BFDA
:1073E000B61A754640EADC0055EA060E18D04FEA98
:1073F000051545EA16754FEA06164FEAC30343EA38
:1074000052734FEAC2025FEA1C1CC0D111F4801F04
:107410000BD141EA00014FF000004FF0004CB6E7FD
:1074200011F4801F04BF01430020B4F1FD0C88BF9C
:10743000BCF5E06F3FF6AFAEB5EB030C04BFB6EBA7
:10744000020C5FEA500C50F1000041EB045170BD9A
:107450000EF0004E4EEA113114EB5C04C2BFD4EBC7
:107460000C0541EA045170BD41F480114FF0000E4B
:10747000013C90E645EA060E8DE60CEA135594EAC7
:107480000C0F08BF95EA0C0F3FF43BAF94EA0C0FCA
:107490000AD150EA01347FF434AF95EA0C0F7FF43F
:1074A00025AF104619462CE795EA0C0F06D152EA93
:1074B00003353FF4FDAE1046194622E750EA410677
:1074C00018BF52EA43067FF4C5AE50EA41047FF488
:1074D0000DAF52EA43057FF4EBAE12E74FF0FF3CED
:1074E00006E000BF4FF0010C02E000BF4FF0010CBE
:1074F0004DF804CD4FEA410C7FEA6C5C4FEA430C37
:1075000018BF7FEA6C5C1BD001B050EA410C0CBF85
:1075100052EA430C91EA030F02BF90EA020F0020E7
:10752000704710F1000F91EA030F58BF994208BF4E
:1075300090422CBFD8176FEAE37040F0010070470B
:107540004FEA410C7FEA6C5C02D150EA013C07D162
:107550004FEA430C7FEA6C5CD6D152EA033CD3D0AD
:107560005DF8040B704700BF8446104662468C46A7
:107570001946634600E000BF01B5FFF7B7FF0028DA
:1075800048BF10F1000F01BD4DF808EDFFF7F4FF03
:107590000CBF012000205DF808FB00BF4DF808ED8E
:1075A000FFF7EAFF34BF012000205DF808FB00BFB1
:1075B0004DF808EDFFF7E0FF94BF012000205DF8D3
:1075C00008FB00BF4DF808EDFFF7CEFF94BF012088
:1075D00000205DF808FB00BF4DF808EDFFF7C4FF81
:1075E00034BF012000205DF808FB00BF4FEA410CCA
:1075F0007FEA6C5C02D150EA013C0AD14FEA430CAD
:107600007FEA6C5C02D152EA033C02D14FF00000E9
:1076100070474FF0010070474FEA410212F5001227
:1076200015D211D56FF47873B3EB625212D94FEAC9
:10763000C12343F0004343EA505311F0004F23FAB3
:1076400002F018BF404270474FF00000704750EA08
:10765000013005D111F0004008BF6FF000407047C5
:107660004FF00000704700BF4A0011D212F500121F
:1076700011D20DD56FF47873B3EB62520ED44FEA8A
:10768000C12343F0004343EA505323FA02F070470A
:107690004FF00000704750EA013002D14FF0FF3048
:1076A00070474FF0000070474FEA4102B2F1E043EB
:1076B00024BFB3F5001CDCF1FE5C0DD901F0004CD9
:1076C0004FEAC0024CEA5070B2F1004F40EB830029
:1076D00008BF20F00100704711F0804F21D113F155
:1076E0003872BCBF01F00040704741F480114FEA8E
:1076F0005252C2F11802C2F1200C10FA0CF320FA17
:1077000002F018BF40F001004FEAC1234FEAD32333
:1077100003FA0CFC40EA0C0023FA02F34FEA43039D
:10772000CCE77FEA625307D150EA01331EBF4FF026
:10773000FE4040F44000704701F0004040F0FE4041
:1077400040F40000704700BF10B5054C13462CB143
:107750000A4601460220AFF3008010BD204610BD4E
:107760000000000010B501390244904207D010F823
:10777000013B11F8014FA342F7D0181B10BD0020A8
:1077800010BD10B5431E0A44914204D011F8014BBC
:1077900003F8014FF8E710BD884210B501EB020372
:1077A00001D8421E0BE09842FBD28118D21AD34274
:1077B00004D013F8014D01F8014DF8E710BD9942CE
:1077C00004D011F8014B02F8014FF8E710BD024454
:1077D0000346934202D003F8011BFAE7704700000A
:1077E00038B5124B1C68A36B0546D3B91820FDF7BA
:1077F000F9F943F20E33A06303804AF6CD33438098
:1078000041F2342383804EF26D63C3804DF6EC6306
:107810000381052343810B23838101220023C0E9D7
:107820000423A36B00221D615A6138BD60E303206D
:10783000034613F8012B002AFBD1181A01387047B0
:1078400010B5034601448B4204D01A785C1C0AB17F
:107850002346F8E7181A10BD21400D005D400D00C9
:1078600089400D008D400D000000000044696769EB
:1078700074616C202D2D2D200020C2B0432C2000DF
:10788000202500416E616C6F67202D2D2D205465E1
:107890006D706572617475726528C2BA43293A20A9
:1078A00000202054656D706572617475726528C220
:1078B000BA46293A20002020566F6C74616765280B
:1078C0006D56293A200074656D7000626174007213
:1078D000656400677265656E00626C756500417273
:1078E000676F6E0036453430303030342D423541CC
:1078F000332D463339332D453041392D453530450B
:107900003234444343413945003645343030303019
:10791000332D423541332D463339332D45304139EE
:107920002D453530453234444343413945003645D1
:107930003430303030322D423541332D46333933F7
:107940002D453041392D453530453234444343418E
:1079500039450036453430303030312D42354133F1
:107960002D463339332D453041392D45353045329B
:10797000344443434139450000000000000000004A
:10798000274C0D002D4C0D0049580D00574C0D0093
:10799000294C0D000000000000000000214C0D00EB
:1079A0003B4C0D0051590D005B4C0D00234C0D005C
:1079B00000000000000000001B4C0D00494C0D00B1
:1079C00035530D005F4C0D001D4C0D007BE32774FB
:1079D0007BF815ACDD49A913000072F5776972696F
:1079E0006E672E626C6500537461727420646973F3
:1079F000636F766572696E67207365727669636519
:107A0000732E00537461727420646973636F7665BA
:107A100072696E672063686172616374657269730D
:107A2000746963732E0050656572206465766963BE
:107A300065206973206D697373696E672100466103
:107A4000696C656420746F20617070656E6420706D
:107A50006565722043656E7472616C206465766939
:107A600063652E00436F6E6E656374656420627992
:107A70002043656E7472616C206465766963652E5F
:107A800000446973636F6E6E656374656420627928
:107A90002072656D6F7465206465766963652E007C
:107AA00043616E6E6F7420616464206E6577207030
:107AB000656572206465766963652E004E65772082
:107AC0007065726970686572616C20697320636F9C
:107AD0006E6E65637465642E004661696C65642032
:107AE000746F20617070656E6420646973636F7673
:107AF000657265642063686172616374657269733D
:107B00007469632E004661696C656420746F20613E
:107B10007070656E6420646973636F766572656406
:107B200020736572766963652E004661696C6564D1
:107B300020746F20617070656E64206C6F63616C7F
:107B40002063686172616374657269737469632E1E
:107B5000004475706C696361746564206368617268
:107B6000616374657269737469632063616E6E6FBB
:107B7000742062652061646465642E00000000006A
:107B800000000000AD5C0D00A35C0D00995C0D00D1
:107B90008F5C0D00835C0D00775C0D006B5C0D004D
:107BA000635C0D00595C0D004F5C0D0055600D00CD
:107BB0000000000000000000CD5C0D00175D0D000E
:107BC000EF5C0D00CF5C0D00F75C0D00FF5C0D005D
:107BD000075D0D000F5D0D000000000000000000BB
:107BE000A55D0D00955D0D00975D0D0062617564EA
:107BF0000053657269616C0053657269616C310094
:107C00007479706500706172616D00636D64006904
:107C10006400686E64007374726D0066696C740051
:107C20006C766C0061646448616E646C65720072AD
:107C3000656D6F766548616E646C657200656E7522
:107C40006D48616E646C657273004A534F4E537495
:107C50007265616D4C6F6748616E646C657200613E
:107C6000707000253031307520005D2000256400E3
:107C700028293A2000205B00636F6465203D2000C6
:107C800025690064657461696C73203D20000D0AEC
:107C9000006C6E00666E00636F64650064657461FD
:107CA000696C006E6F6E6500747261636500696E69
:107CB000666F007761726E006572726F720070613C
:107CC0006E696300616C6C00000000000000000041
:107CD000E75E0D00DD5E0D00D35E0D00C95E0D0098
:107CE000BD5E0D00B15E0D00A55E0D009D5E0D0038
:107CF000935E0D00895E0D0055600D0000000000D0
:107D000000000000ED5F0D00F75F0D0001600D0049
:107D10000B600D0015600D0021600D002D600D0041
:107D200039600D0041600D004B600D0055600D0085
:107D30006E616E006F766600696E6600000000007E
:107D400000000000E9640D00EB640D005A00252BD3
:107D50003033643A253032750025592D256D2D2597
:107D6000645425483A254D3A2553257A00617363BA
:107D700074696D6500000000000000000000000054
:107D800029660D0079660D0087660D0035610D00CE
:107D90003D660D005F660D004B660D0073660D00BD
:107DA0002B660D002F660D00000000000000000093
:107DB00031670D0081670D008F670D0035610D0083
:107DC0006D670D0033670D0049670D007B670D007F
:107DD0005F670D002D670D0000000000000000002F
:107DE0009B680D0091680D0087680D003D680D00CF
:107DF0007B680D006F680D0063680D005B680D0007
:107E000051680D0047680D0055600D00000000002E
:107E10000000000000000000000000000000000062
:107E20000000000000000000000000000000000052
:107E30000000000000000000000000000000000042
:107E40000000000000000000000000000000000032
:107E50000000000000000000000000000000000022
:107E600000000000000000000000000043000000CF
:107E700079450D00F9460D002D5C0D00B95C0D0033
:107E8000795E0D009D5F0D0021610D0031640D00D4
:107E9000FD650D0015660D00A5680D00656A0D00F5
:107EA000B96A0D007D6B0D00016C0D00856C0D0035
:107EB0002E790D0053790D00E4780D0009790D003D
:107EC0006D7D0D00000000000C7E0D002C7E0D006D
:107ED0004C7E0D00000000000000000000000000CB
:107EE000000000006C7E0D0000000000000000009B
:107EF0000000000000000000000000000000000082
:107F00000000000000000000000000000000000071
:107F10000000000000000000000000000000000061
:087F20000000000000E3032053
:107F2800FFFFFFFF00000102030405060708090A16
:107F38000B0C0D0E0F101112131415161718191A11
:087F48001B1C1D1E1F20280058
:047F50007856341219
:04000003D0004020C9
:00000001FF
